{
  "_format": "hh-sol-artifact-1",
  "contractName": "PayPerView",
  "sourceName": "src/backend/contracts/PayPerView.sol",
  "abi": [
    {
      "inputs": [],
      "stateMutability": "nonpayable",
      "type": "constructor"
    },
    {
      "anonymous": false,
      "inputs": [
        {
          "indexed": true,
          "internalType": "address",
          "name": "owner",
          "type": "address"
        },
        {
          "indexed": true,
          "internalType": "address",
          "name": "approved",
          "type": "address"
        },
        {
          "indexed": true,
          "internalType": "uint256",
          "name": "tokenId",
          "type": "uint256"
        }
      ],
      "name": "Approval",
      "type": "event"
    },
    {
      "anonymous": false,
      "inputs": [
        {
          "indexed": true,
          "internalType": "address",
          "name": "owner",
          "type": "address"
        },
        {
          "indexed": true,
          "internalType": "address",
          "name": "operator",
          "type": "address"
        },
        {
          "indexed": false,
          "internalType": "bool",
          "name": "approved",
          "type": "bool"
        }
      ],
      "name": "ApprovalForAll",
      "type": "event"
    },
    {
      "anonymous": false,
      "inputs": [
        {
          "indexed": true,
          "internalType": "address",
          "name": "from",
          "type": "address"
        },
        {
          "indexed": true,
          "internalType": "address",
          "name": "to",
          "type": "address"
        },
        {
          "indexed": true,
          "internalType": "uint256",
          "name": "tokenId",
          "type": "uint256"
        }
      ],
      "name": "Transfer",
      "type": "event"
    },
    {
      "inputs": [
        {
          "internalType": "address",
          "name": "viewer",
          "type": "address"
        },
        {
          "internalType": "uint256",
          "name": "_id",
          "type": "uint256"
        }
      ],
      "name": "addViewer",
      "outputs": [],
      "stateMutability": "payable",
      "type": "function"
    },
    {
      "inputs": [
        {
          "internalType": "uint256",
          "name": "",
          "type": "uint256"
        },
        {
          "internalType": "address",
          "name": "",
          "type": "address"
        }
      ],
      "name": "allocationOfRoyalties",
      "outputs": [
        {
          "internalType": "uint16",
          "name": "",
          "type": "uint16"
        }
      ],
      "stateMutability": "view",
      "type": "function"
    },
    {
      "inputs": [
        {
          "internalType": "address",
          "name": "to",
          "type": "address"
        },
        {
          "internalType": "uint256",
          "name": "tokenId",
          "type": "uint256"
        }
      ],
      "name": "approve",
      "outputs": [],
      "stateMutability": "nonpayable",
      "type": "function"
    },
    {
      "inputs": [
        {
          "internalType": "address",
          "name": "owner",
          "type": "address"
        }
      ],
      "name": "balanceOf",
      "outputs": [
        {
          "internalType": "uint256",
          "name": "",
          "type": "uint256"
        }
      ],
      "stateMutability": "view",
      "type": "function"
    },
    {
      "inputs": [
        {
          "internalType": "address",
          "name": "viewer",
          "type": "address"
        },
        {
          "internalType": "uint256",
          "name": "_id",
          "type": "uint256"
        }
      ],
      "name": "canView",
      "outputs": [
        {
          "internalType": "bool",
          "name": "",
          "type": "bool"
        }
      ],
      "stateMutability": "view",
      "type": "function"
    },
    {
      "inputs": [
        {
          "internalType": "uint256",
          "name": "tokenId",
          "type": "uint256"
        }
      ],
      "name": "getApproved",
      "outputs": [
        {
          "internalType": "address",
          "name": "",
          "type": "address"
        }
      ],
      "stateMutability": "view",
      "type": "function"
    },
    {
      "inputs": [],
      "name": "getTokenIdsAddressCanRedeemFrom",
      "outputs": [
        {
          "internalType": "uint256[]",
          "name": "",
          "type": "uint256[]"
        }
      ],
      "stateMutability": "view",
      "type": "function"
    },
    {
      "inputs": [
        {
          "internalType": "uint256",
          "name": "_id",
          "type": "uint256"
        }
      ],
      "name": "getTokenURI",
      "outputs": [
        {
          "internalType": "string",
          "name": "",
          "type": "string"
        }
      ],
      "stateMutability": "view",
      "type": "function"
    },
    {
      "inputs": [
        {
          "internalType": "address",
          "name": "owner",
          "type": "address"
        },
        {
          "internalType": "address",
          "name": "operator",
          "type": "address"
        }
      ],
      "name": "isApprovedForAll",
      "outputs": [
        {
          "internalType": "bool",
          "name": "",
          "type": "bool"
        }
      ],
      "stateMutability": "view",
      "type": "function"
    },
    {
      "inputs": [
        {
          "internalType": "string",
          "name": "_tokenURI",
          "type": "string"
        },
        {
          "internalType": "uint256",
          "name": "_duration",
          "type": "uint256"
        },
        {
          "internalType": "uint256",
          "name": "_amount",
          "type": "uint256"
        },
        {
          "internalType": "address[]",
          "name": "_recipients",
          "type": "address[]"
        },
        {
          "internalType": "uint16[]",
          "name": "_allocationPercentages",
          "type": "uint16[]"
        }
      ],
      "name": "mintWithCustomParams",
      "outputs": [],
      "stateMutability": "nonpayable",
      "type": "function"
    },
    {
      "inputs": [
        {
          "internalType": "string",
          "name": "_tokenURI",
          "type": "string"
        },
        {
          "internalType": "address[]",
          "name": "_recipients",
          "type": "address[]"
        },
        {
          "internalType": "uint16[]",
          "name": "_allocationPercentages",
          "type": "uint16[]"
        }
      ],
      "name": "mintWithDefaultParams",
      "outputs": [],
      "stateMutability": "nonpayable",
      "type": "function"
    },
    {
      "inputs": [],
      "name": "name",
      "outputs": [
        {
          "internalType": "string",
          "name": "",
          "type": "string"
        }
      ],
      "stateMutability": "view",
      "type": "function"
    },
    {
      "inputs": [
        {
          "internalType": "uint256",
          "name": "tokenId",
          "type": "uint256"
        }
      ],
      "name": "ownerOf",
      "outputs": [
        {
          "internalType": "address",
          "name": "",
          "type": "address"
        }
      ],
      "stateMutability": "view",
      "type": "function"
    },
    {
      "inputs": [
        {
          "internalType": "uint256",
          "name": "_id",
          "type": "uint256"
        }
      ],
      "name": "redeemRoyalty",
      "outputs": [],
      "stateMutability": "nonpayable",
      "type": "function"
    },
    {
      "inputs": [
        {
          "internalType": "uint256",
          "name": "_id",
          "type": "uint256"
        }
      ],
      "name": "redeemableRoyaltyPerToken",
      "outputs": [
        {
          "internalType": "uint256",
          "name": "",
          "type": "uint256"
        }
      ],
      "stateMutability": "view",
      "type": "function"
    },
    {
      "inputs": [
        {
          "internalType": "uint256",
          "name": "",
          "type": "uint256"
        },
        {
          "internalType": "uint256",
          "name": "",
          "type": "uint256"
        }
      ],
      "name": "royaltyRecipientsByToken",
      "outputs": [
        {
          "internalType": "address",
          "name": "",
          "type": "address"
        }
      ],
      "stateMutability": "view",
      "type": "function"
    },
    {
      "inputs": [
        {
          "internalType": "address",
          "name": "from",
          "type": "address"
        },
        {
          "internalType": "address",
          "name": "to",
          "type": "address"
        },
        {
          "internalType": "uint256",
          "name": "tokenId",
          "type": "uint256"
        }
      ],
      "name": "safeTransferFrom",
      "outputs": [],
      "stateMutability": "nonpayable",
      "type": "function"
    },
    {
      "inputs": [
        {
          "internalType": "address",
          "name": "from",
          "type": "address"
        },
        {
          "internalType": "address",
          "name": "to",
          "type": "address"
        },
        {
          "internalType": "uint256",
          "name": "tokenId",
          "type": "uint256"
        },
        {
          "internalType": "bytes",
          "name": "_data",
          "type": "bytes"
        }
      ],
      "name": "safeTransferFrom",
      "outputs": [],
      "stateMutability": "nonpayable",
      "type": "function"
    },
    {
      "inputs": [
        {
          "internalType": "uint256",
          "name": "_id",
          "type": "uint256"
        },
        {
          "internalType": "uint256",
          "name": "_amount",
          "type": "uint256"
        }
      ],
      "name": "setAmountToView",
      "outputs": [],
      "stateMutability": "nonpayable",
      "type": "function"
    },
    {
      "inputs": [
        {
          "internalType": "address",
          "name": "operator",
          "type": "address"
        },
        {
          "internalType": "bool",
          "name": "approved",
          "type": "bool"
        }
      ],
      "name": "setApprovalForAll",
      "outputs": [],
      "stateMutability": "nonpayable",
      "type": "function"
    },
    {
      "inputs": [
        {
          "internalType": "uint256",
          "name": "_id",
          "type": "uint256"
        },
        {
          "internalType": "address[]",
          "name": "_recipients",
          "type": "address[]"
        },
        {
          "internalType": "uint16[]",
          "name": "_allocationPercentages",
          "type": "uint16[]"
        }
      ],
      "name": "setRoyaltyRecipients",
      "outputs": [],
      "stateMutability": "nonpayable",
      "type": "function"
    },
    {
      "inputs": [
        {
          "internalType": "uint256",
          "name": "_id",
          "type": "uint256"
        },
        {
          "internalType": "uint256",
          "name": "_duration",
          "type": "uint256"
        }
      ],
      "name": "setViewDuration",
      "outputs": [],
      "stateMutability": "nonpayable",
      "type": "function"
    },
    {
      "inputs": [
        {
          "internalType": "bytes4",
          "name": "interfaceId",
          "type": "bytes4"
        }
      ],
      "name": "supportsInterface",
      "outputs": [
        {
          "internalType": "bool",
          "name": "",
          "type": "bool"
        }
      ],
      "stateMutability": "view",
      "type": "function"
    },
    {
      "inputs": [],
      "name": "symbol",
      "outputs": [
        {
          "internalType": "string",
          "name": "",
          "type": "string"
        }
      ],
      "stateMutability": "view",
      "type": "function"
    },
    {
      "inputs": [],
      "name": "tokenCount",
      "outputs": [
        {
          "internalType": "uint256",
          "name": "",
          "type": "uint256"
        }
      ],
      "stateMutability": "view",
      "type": "function"
    },
    {
      "inputs": [
        {
          "internalType": "uint256",
          "name": "tokenId",
          "type": "uint256"
        }
      ],
      "name": "tokenURI",
      "outputs": [
        {
          "internalType": "string",
          "name": "",
          "type": "string"
        }
      ],
      "stateMutability": "view",
      "type": "function"
    },
    {
      "inputs": [
        {
          "internalType": "uint256",
          "name": "_id",
          "type": "uint256"
        }
      ],
      "name": "totalRoyaltyCollected",
      "outputs": [
        {
          "internalType": "uint256",
          "name": "",
          "type": "uint256"
        }
      ],
      "stateMutability": "view",
      "type": "function"
    },
    {
      "inputs": [
        {
          "internalType": "address",
          "name": "from",
          "type": "address"
        },
        {
          "internalType": "address",
          "name": "to",
          "type": "address"
        },
        {
          "internalType": "uint256",
          "name": "tokenId",
          "type": "uint256"
        }
      ],
      "name": "transferFrom",
      "outputs": [],
      "stateMutability": "nonpayable",
      "type": "function"
    },
    {
      "inputs": [
        {
          "internalType": "address",
          "name": "",
          "type": "address"
        },
        {
          "internalType": "uint256",
          "name": "",
          "type": "uint256"
        }
      ],
      "name": "viewExpiration",
      "outputs": [
        {
          "internalType": "uint256",
          "name": "",
          "type": "uint256"
        }
      ],
      "stateMutability": "view",
      "type": "function"
    },
    {
      "inputs": [
        {
          "internalType": "uint256",
          "name": "_id",
          "type": "uint256"
        }
      ],
      "name": "viewTokenConcealedURI",
      "outputs": [
        {
          "internalType": "string",
          "name": "",
          "type": "string"
        }
      ],
      "stateMutability": "view",
      "type": "function"
    },
    {
      "inputs": [
        {
          "internalType": "uint256",
          "name": "_id",
          "type": "uint256"
        }
      ],
      "name": "viewingDetailsFor",
      "outputs": [
        {
          "internalType": "uint256",
          "name": "viewDuration",
          "type": "uint256"
        },
        {
          "internalType": "uint256",
          "name": "amountToView",
          "type": "uint256"
        }
      ],
      "stateMutability": "view",
      "type": "function"
    }
  ],
  "bytecode": "0x60806040526000600e553480156200001657600080fd5b506040518060400160405280600a81526020017f50617950657256696577000000000000000000000000000000000000000000008152506040518060400160405280600381526020017f505056000000000000000000000000000000000000000000000000000000000081525081600090805190602001906200009b929190620000f0565b508060019080519060200190620000b4929190620000f0565b50505062093a80600f60006101000a81548163ffffffff021916908363ffffffff16021790555067016345785d8a000060108190555062000205565b828054620000fe90620001a0565b90600052602060002090601f0160209004810192826200012257600085556200016e565b82601f106200013d57805160ff19168380011785556200016e565b828001600101855582156200016e579182015b828111156200016d57825182559160200191906001019062000150565b5b5090506200017d919062000181565b5090565b5b808211156200019c57600081600090555060010162000182565b5090565b60006002820490506001821680620001b957607f821691505b60208210811415620001d057620001cf620001d6565b5b50919050565b7f4e487b7100000000000000000000000000000000000000000000000000000000600052602260045260246000fd5b6149d380620002156000396000f3fe6080604052600436106101d85760003560e01c80636352211e11610102578063ab2c9abe11610095578063c87b56dd11610064578063c87b56dd1461072e578063d2aad8611461076b578063e985e9c514610794578063f54f52ed146107d1576101d8565b8063ab2c9abe14610676578063b88d4fde146106b3578063bec41f73146106dc578063c2496bec14610705576101d8565b80639f8aa4c4116100d15780639f8aa4c414610596578063a03a1ded146105d3578063a22cb46514610610578063a336380c14610639576101d8565b80636352211e146104c657806370a082311461050357806395d89b41146105405780639f181b5e1461056b576101d8565b806323b872dd1161017a5780633bbc3c8c116101495780633bbc3c8c146103f95780633f4dd3ab1461042257806342842e0e1461045f5780634cd5adbb14610488576101d8565b806323b872dd1461032d57806329bbf979146103565780632b6355e81461037f5780633bb3a24d146103bc576101d8565b8063095ea7b3116101b6578063095ea7b3146102825780630b15c9dc146102ab5780631b1d639d146102e85780631fb3aaf914610304576101d8565b806301ffc9a7146101dd57806306fdde031461021a578063081812fc14610245575b600080fd5b3480156101e957600080fd5b5061020460048036038101906101ff919061327e565b6107fc565b6040516102119190613ae5565b60405180910390f35b34801561022657600080fd5b5061022f6108de565b60405161023c9190613b00565b60405180910390f35b34801561025157600080fd5b5061026c60048036038101906102679190613462565b610970565b6040516102799190613a5c565b60405180910390f35b34801561028e57600080fd5b506102a960048036038101906102a49190613242565b6109f5565b005b3480156102b757600080fd5b506102d260048036038101906102cd9190613242565b610b0d565b6040516102df9190613ae5565b60405180910390f35b61030260048036038101906102fd9190613242565b610b69565b005b34801561031057600080fd5b5061032b60048036038101906103269190613462565b610daf565b005b34801561033957600080fd5b50610354600480360381019061034f919061313c565b610f64565b005b34801561036257600080fd5b5061037d60048036038101906103789190613550565b610fc4565b005b34801561038b57600080fd5b506103a660048036038101906103a1919061348b565b611063565b6040516103b39190613e22565b60405180910390f35b3480156103c857600080fd5b506103e360048036038101906103de9190613462565b611093565b6040516103f09190613b00565b60405180910390f35b34801561040557600080fd5b50610420600480360381019061041b9190613371565b611138565b005b34801561042e57600080fd5b5061044960048036038101906104449190613242565b6111ba565b6040516104569190613e3d565b60405180910390f35b34801561046b57600080fd5b506104866004803603810190610481919061313c565b6111df565b005b34801561049457600080fd5b506104af60048036038101906104aa9190613462565b6111ff565b6040516104bd929190613e58565b60405180910390f35b3480156104d257600080fd5b506104ed60048036038101906104e89190613462565b611233565b6040516104fa9190613a5c565b60405180910390f35b34801561050f57600080fd5b5061052a600480360381019061052591906130d7565b6112e5565b6040516105379190613e3d565b60405180910390f35b34801561054c57600080fd5b5061055561139d565b6040516105629190613b00565b60405180910390f35b34801561057757600080fd5b5061058061142f565b60405161058d9190613e3d565b60405180910390f35b3480156105a257600080fd5b506105bd60048036038101906105b89190613462565b611435565b6040516105ca9190613b00565b60405180910390f35b3480156105df57600080fd5b506105fa60048036038101906105f59190613550565b61156b565b6040516106079190613a5c565b60405180910390f35b34801561061c57600080fd5b5061063760048036038101906106329190613206565b6115b9565b005b34801561064557600080fd5b50610660600480360381019061065b9190613462565b6115cf565b60405161066d9190613e3d565b60405180910390f35b34801561068257600080fd5b5061069d60048036038101906106989190613462565b6115e2565b6040516106aa9190613e3d565b60405180910390f35b3480156106bf57600080fd5b506106da60048036038101906106d5919061318b565b61170a565b005b3480156106e857600080fd5b5061070360048036038101906106fe91906134c7565b61176c565b005b34801561071157600080fd5b5061072c60048036038101906107279190613550565b611b56565b005b34801561073a57600080fd5b5061075560048036038101906107509190613462565b611bf5565b6040516107629190613b00565b60405180910390f35b34801561077757600080fd5b50610792600480360381019061078d91906132d0565b611c9c565b005b3480156107a057600080fd5b506107bb60048036038101906107b69190613100565b611ccc565b6040516107c89190613ae5565b60405180910390f35b3480156107dd57600080fd5b506107e6611d60565b6040516107f39190613ac3565b60405180910390f35b60007f80ac58cd000000000000000000000000000000000000000000000000000000007bffffffffffffffffffffffffffffffffffffffffffffffffffffffff1916827bffffffffffffffffffffffffffffffffffffffffffffffffffffffff191614806108c757507f5b5e139f000000000000000000000000000000000000000000000000000000007bffffffffffffffffffffffffffffffffffffffffffffffffffffffff1916827bffffffffffffffffffffffffffffffffffffffffffffffffffffffff1916145b806108d757506108d682611df5565b5b9050919050565b6060600080546108ed9061416a565b80601f01602080910402602001604051908101604052809291908181526020018280546109199061416a565b80156109665780601f1061093b57610100808354040283529160200191610966565b820191906000526020600020905b81548152906001019060200180831161094957829003601f168201915b5050505050905090565b600061097b82611e5f565b6109ba576040517f08c379a00000000000000000000000000000000000000000000000000000000081526004016109b190613d02565b60405180910390fd5b6004600083815260200190815260200160002060009054906101000a900473ffffffffffffffffffffffffffffffffffffffff169050919050565b6000610a0082611233565b90508073ffffffffffffffffffffffffffffffffffffffff168373ffffffffffffffffffffffffffffffffffffffff161415610a71576040517f08c379a0000000000000000000000000000000000000000000000000000000008152600401610a6890613d62565b60405180910390fd5b8073ffffffffffffffffffffffffffffffffffffffff16610a90611ecb565b73ffffffffffffffffffffffffffffffffffffffff161480610abf5750610abe81610ab9611ecb565b611ccc565b5b610afe576040517f08c379a0000000000000000000000000000000000000000000000000000000008152600401610af590613c82565b60405180910390fd5b610b088383611ed3565b505050565b6000610b1882611e5f565b610b57576040517f08c379a0000000000000000000000000000000000000000000000000000000008152600401610b4e90613e02565b60405180910390fd5b610b618383611f8c565b905092915050565b610b7281611e5f565b610bb1576040517f08c379a0000000000000000000000000000000000000000000000000000000008152600401610ba890613b62565b60405180910390fd5b610bba81611fff565b60005b60076000838152602001908152602001600020805490508160ff161015610d30576000600760008481526020019081526020016000208260ff1681548110610c2e577f4e487b7100000000000000000000000000000000000000000000000000000000600052603260045260246000fd5b9060005260206000200160009054906101000a900473ffffffffffffffffffffffffffffffffffffffff169050610cc8610c69843484612058565b600b600086815260200190815260200160002060008473ffffffffffffffffffffffffffffffffffffffff1673ffffffffffffffffffffffffffffffffffffffff1681526020019081526020016000205461211790919063ffffffff16565b600b600085815260200190815260200160002060008373ffffffffffffffffffffffffffffffffffffffff1673ffffffffffffffffffffffffffffffffffffffff16815260200190815260200160002081905550508080610d2890614216565b915050610bbd565b50610d5760096000838152602001908152602001600020544261211790919063ffffffff16565b600660008473ffffffffffffffffffffffffffffffffffffffff1673ffffffffffffffffffffffffffffffffffffffff1681526020019081526020016000206000838152602001908152602001600020819055505050565b610db881611e5f565b610df7576040517f08c379a0000000000000000000000000000000000000000000000000000000008152600401610dee90613b62565b60405180910390fd5b6000600b600083815260200190815260200160002060003373ffffffffffffffffffffffffffffffffffffffff1673ffffffffffffffffffffffffffffffffffffffff1681526020019081526020016000205490506000811415610e90576040517f08c379a0000000000000000000000000000000000000000000000000000000008152600401610e8790613b42565b60405180910390fd5b6000600b600084815260200190815260200160002060003373ffffffffffffffffffffffffffffffffffffffff1673ffffffffffffffffffffffffffffffffffffffff1681526020019081526020016000208190555060003373ffffffffffffffffffffffffffffffffffffffff166108fc839081150290604051600060405180830381858888f19350505050905080610f5f576040517f08c379a0000000000000000000000000000000000000000000000000000000008152600401610f5690613dc2565b60405180910390fd5b505050565b610f75610f6f611ecb565b8261212d565b610fb4576040517f08c379a0000000000000000000000000000000000000000000000000000000008152600401610fab90613d82565b60405180910390fd5b610fbf83838361220b565b505050565b610fcd82611e5f565b61100c576040517f08c379a000000000000000000000000000000000000000000000000000000000815260040161100390613b62565b60405180910390fd5b611016338361212d565b611055576040517f08c379a000000000000000000000000000000000000000000000000000000000815260040161104c90613b22565b60405180910390fd5b61105f8282612472565b5050565b60086020528160005260406000206020528060005260406000206000915091509054906101000a900461ffff1681565b6060600c600083815260200190815260200160002080546110b39061416a565b80601f01602080910402602001604051908101604052809291908181526020018280546110df9061416a565b801561112c5780601f106111015761010080835404028352916020019161112c565b820191906000526020600020905b81548152906001019060200180831161110f57829003601f168201915b50505050509050919050565b61114e6001600e5461211790919063ffffffff16565b600e8190555061116033600e546124d2565b61116c600e54876126ac565b611178600e5486612472565b86600c6000600e54815260200190815260200160002090805190602001906111a1929190612db2565b506111b1600e548585858561176c565b50505050505050565b6006602052816000526040600020602052806000526040600020600091509150505481565b6111fa8383836040518060200160405280600081525061170a565b505050565b6000806009600084815260200190815260200160002054600a60008581526020019081526020016000205491509150915091565b6000806002600084815260200190815260200160002060009054906101000a900473ffffffffffffffffffffffffffffffffffffffff169050600073ffffffffffffffffffffffffffffffffffffffff168173ffffffffffffffffffffffffffffffffffffffff1614156112dc576040517f08c379a00000000000000000000000000000000000000000000000000000000081526004016112d390613cc2565b60405180910390fd5b80915050919050565b60008073ffffffffffffffffffffffffffffffffffffffff168273ffffffffffffffffffffffffffffffffffffffff161415611356576040517f08c379a000000000000000000000000000000000000000000000000000000000815260040161134d90613ca2565b60405180910390fd5b600360008373ffffffffffffffffffffffffffffffffffffffff1673ffffffffffffffffffffffffffffffffffffffff168152602001908152602001600020549050919050565b6060600180546113ac9061416a565b80601f01602080910402602001604051908101604052809291908181526020018280546113d89061416a565b80156114255780601f106113fa57610100808354040283529160200191611425565b820191906000526020600020905b81548152906001019060200180831161140857829003601f168201915b5050505050905090565b600e5481565b606061144082611e5f565b61147f576040517f08c379a000000000000000000000000000000000000000000000000000000000815260040161147690613b62565b60405180910390fd5b6114893383611f8c565b6114c8576040517f08c379a00000000000000000000000000000000000000000000000000000000081526004016114bf90613d22565b60405180910390fd5b600c600083815260200190815260200160002080546114e69061416a565b80601f01602080910402602001604051908101604052809291908181526020018280546115129061416a565b801561155f5780601f106115345761010080835404028352916020019161155f565b820191906000526020600020905b81548152906001019060200180831161154257829003601f168201915b50505050509050919050565b6007602052816000526040600020818154811061158757600080fd5b906000526020600020016000915091509054906101000a900473ffffffffffffffffffffffffffffffffffffffff1681565b6115cb6115c4611ecb565b83836126c8565b5050565b60006115db8233612835565b9050919050565b60006115ed82611e5f565b61162c576040517f08c379a000000000000000000000000000000000000000000000000000000000815260040161162390613b62565b60405180910390fd5b6000805b60076000858152602001908152602001600020805490508160ff161015611700576000600760008681526020019081526020016000208260ff16815481106116a1577f4e487b7100000000000000000000000000000000000000000000000000000000600052603260045260246000fd5b9060005260206000200160009054906101000a900473ffffffffffffffffffffffffffffffffffffffff1690506116ea6116db8683612835565b8461211790919063ffffffff16565b92505080806116f890614216565b915050611630565b5080915050919050565b61171b611715611ecb565b8361212d565b61175a576040517f08c379a000000000000000000000000000000000000000000000000000000000815260040161175190613d82565b60405180910390fd5b61176684848484612890565b50505050565b61177585611e5f565b6117b4576040517f08c379a00000000000000000000000000000000000000000000000000000000081526004016117ab90613e02565b60405180910390fd5b6117be338661212d565b6117fd576040517f08c379a00000000000000000000000000000000000000000000000000000000081526004016117f490613b22565b60405180910390fd5b818190508484905014611845576040517f08c379a000000000000000000000000000000000000000000000000000000000815260040161183c90613da2565b60405180910390fd5b6000805b83839050811015611ae657600086868381811061188f577f4e487b7100000000000000000000000000000000000000000000000000000000600052603260045260246000fd5b90506020020160208101906118a491906130d7565b9050600073ffffffffffffffffffffffffffffffffffffffff168173ffffffffffffffffffffffffffffffffffffffff1614156118e057600080fd5b6103e885858481811061191c577f4e487b7100000000000000000000000000000000000000000000000000000000600052603260045260246000fd5b90506020020160208101906119319190613439565b61ffff161161193f57600080fd5b848483818110611978577f4e487b7100000000000000000000000000000000000000000000000000000000600052603260045260246000fd5b905060200201602081019061198d9190613439565b600860008a815260200190815260200160002060008373ffffffffffffffffffffffffffffffffffffffff1673ffffffffffffffffffffffffffffffffffffffff16815260200190815260200160002060006101000a81548161ffff021916908361ffff160217905550611a0188826128ec565b611a6c57600d60008273ffffffffffffffffffffffffffffffffffffffff1673ffffffffffffffffffffffffffffffffffffffff1681526020019081526020016000208890806001815401808255809150506001900390600052602060002001600090919091909150555b611ad0858584818110611aa8577f4e487b7100000000000000000000000000000000000000000000000000000000600052603260045260246000fd5b9050602002016020810190611abd9190613439565b61ffff168461211790919063ffffffff16565b9250508080611ade906141cd565b915050611849565b508484600760008981526020019081526020016000209190611b09929190612e38565b506127108114611b4e576040517f08c379a0000000000000000000000000000000000000000000000000000000008152600401611b4590613de2565b60405180910390fd5b505050505050565b611b5f82611e5f565b611b9e576040517f08c379a0000000000000000000000000000000000000000000000000000000008152600401611b9590613b62565b60405180910390fd5b611ba8338361212d565b611be7576040517f08c379a0000000000000000000000000000000000000000000000000000000008152600401611bde90613b22565b60405180910390fd5b611bf182826126ac565b5050565b6060611c0082611e5f565b611c3f576040517f08c379a0000000000000000000000000000000000000000000000000000000008152600401611c3690613d42565b60405180910390fd5b6000611c496129fe565b90506000815111611c695760405180602001604052806000815250611c94565b80611c7384612a15565b604051602001611c84929190613a38565b6040516020818303038152906040525b915050919050565b611cc585600f60009054906101000a900463ffffffff1663ffffffff1660105487878787611138565b5050505050565b6000600560008473ffffffffffffffffffffffffffffffffffffffff1673ffffffffffffffffffffffffffffffffffffffff16815260200190815260200160002060008373ffffffffffffffffffffffffffffffffffffffff1673ffffffffffffffffffffffffffffffffffffffff16815260200190815260200160002060009054906101000a900460ff16905092915050565b6060600d60003373ffffffffffffffffffffffffffffffffffffffff1673ffffffffffffffffffffffffffffffffffffffff168152602001908152602001600020805480602002602001604051908101604052809291908181526020018280548015611deb57602002820191906000526020600020905b815481526020019060010190808311611dd7575b5050505050905090565b60007f01ffc9a7000000000000000000000000000000000000000000000000000000007bffffffffffffffffffffffffffffffffffffffffffffffffffffffff1916827bffffffffffffffffffffffffffffffffffffffffffffffffffffffff1916149050919050565b60008073ffffffffffffffffffffffffffffffffffffffff166002600084815260200190815260200160002060009054906101000a900473ffffffffffffffffffffffffffffffffffffffff1673ffffffffffffffffffffffffffffffffffffffff1614159050919050565b600033905090565b816004600083815260200190815260200160002060006101000a81548173ffffffffffffffffffffffffffffffffffffffff021916908373ffffffffffffffffffffffffffffffffffffffff160217905550808273ffffffffffffffffffffffffffffffffffffffff16611f4683611233565b73ffffffffffffffffffffffffffffffffffffffff167f8c5be1e5ebec7d5bd14f71427d1e84f3dd0314c0f7b2291e5b200ac8c7c3b92560405160405180910390a45050565b600080600660008573ffffffffffffffffffffffffffffffffffffffff1673ffffffffffffffffffffffffffffffffffffffff1681526020019081526020016000206000848152602001908152602001600020549050611fec848461212d565b80611ff657504281115b91505092915050565b600a600082815260200190815260200160002054341015612055576040517f08c379a000000000000000000000000000000000000000000000000000000000815260040161204c90613c02565b60405180910390fd5b50565b6000806120e56127106120d7600a600860008a815260200190815260200160002060008873ffffffffffffffffffffffffffffffffffffffff1673ffffffffffffffffffffffffffffffffffffffff16815260200190815260200160002060009054906101000a900461ffff1661ffff16612bc290919063ffffffff16565b612bd890919063ffffffff16565b905061210d816120ff600a87612bd890919063ffffffff16565b612bc290919063ffffffff16565b9150509392505050565b600081836121259190613f84565b905092915050565b600061213882611e5f565b612177576040517f08c379a000000000000000000000000000000000000000000000000000000000815260040161216e90613c62565b60405180910390fd5b600061218283611233565b90508073ffffffffffffffffffffffffffffffffffffffff168473ffffffffffffffffffffffffffffffffffffffff1614806121c457506121c38185611ccc565b5b8061220257508373ffffffffffffffffffffffffffffffffffffffff166121ea84610970565b73ffffffffffffffffffffffffffffffffffffffff16145b91505092915050565b8273ffffffffffffffffffffffffffffffffffffffff1661222b82611233565b73ffffffffffffffffffffffffffffffffffffffff1614612281576040517f08c379a000000000000000000000000000000000000000000000000000000000815260040161227890613bc2565b60405180910390fd5b600073ffffffffffffffffffffffffffffffffffffffff168273ffffffffffffffffffffffffffffffffffffffff1614156122f1576040517f08c379a00000000000000000000000000000000000000000000000000000000081526004016122e890613c22565b60405180910390fd5b6122fc838383612bee565b612307600082611ed3565b6001600360008573ffffffffffffffffffffffffffffffffffffffff1673ffffffffffffffffffffffffffffffffffffffff16815260200190815260200160002060008282546123579190614065565b925050819055506001600360008473ffffffffffffffffffffffffffffffffffffffff1673ffffffffffffffffffffffffffffffffffffffff16815260200190815260200160002060008282546123ae9190613f84565b92505081905550816002600083815260200190815260200160002060006101000a81548173ffffffffffffffffffffffffffffffffffffffff021916908373ffffffffffffffffffffffffffffffffffffffff160217905550808273ffffffffffffffffffffffffffffffffffffffff168473ffffffffffffffffffffffffffffffffffffffff167fddf252ad1be2c89b69c2b068fc378daa952ba7f163c4a11628f55a4df523b3ef60405160405180910390a461246d838383612bf3565b505050565b60648110156124b6576040517f08c379a00000000000000000000000000000000000000000000000000000000081526004016124ad90613ba2565b60405180910390fd5b80600a6000848152602001908152602001600020819055505050565b600073ffffffffffffffffffffffffffffffffffffffff168273ffffffffffffffffffffffffffffffffffffffff161415612542576040517f08c379a000000000000000000000000000000000000000000000000000000000815260040161253990613ce2565b60405180910390fd5b61254b81611e5f565b1561258b576040517f08c379a000000000000000000000000000000000000000000000000000000000815260040161258290613be2565b60405180910390fd5b61259760008383612bee565b6001600360008473ffffffffffffffffffffffffffffffffffffffff1673ffffffffffffffffffffffffffffffffffffffff16815260200190815260200160002060008282546125e79190613f84565b92505081905550816002600083815260200190815260200160002060006101000a81548173ffffffffffffffffffffffffffffffffffffffff021916908373ffffffffffffffffffffffffffffffffffffffff160217905550808273ffffffffffffffffffffffffffffffffffffffff16600073ffffffffffffffffffffffffffffffffffffffff167fddf252ad1be2c89b69c2b068fc378daa952ba7f163c4a11628f55a4df523b3ef60405160405180910390a46126a860008383612bf3565b5050565b8060096000848152602001908152602001600020819055505050565b8173ffffffffffffffffffffffffffffffffffffffff168373ffffffffffffffffffffffffffffffffffffffff161415612737576040517f08c379a000000000000000000000000000000000000000000000000000000000815260040161272e90613c42565b60405180910390fd5b80600560008573ffffffffffffffffffffffffffffffffffffffff1673ffffffffffffffffffffffffffffffffffffffff16815260200190815260200160002060008473ffffffffffffffffffffffffffffffffffffffff1673ffffffffffffffffffffffffffffffffffffffff16815260200190815260200160002060006101000a81548160ff0219169083151502179055508173ffffffffffffffffffffffffffffffffffffffff168373ffffffffffffffffffffffffffffffffffffffff167f17307eab39ab6107e8899845ad3d59bd9653f200f220920489ca2b5937696c31836040516128289190613ae5565b60405180910390a3505050565b6000600b600084815260200190815260200160002060008373ffffffffffffffffffffffffffffffffffffffff1673ffffffffffffffffffffffffffffffffffffffff16815260200190815260200160002054905092915050565b61289b84848461220b565b6128a784848484612bf8565b6128e6576040517f08c379a00000000000000000000000000000000000000000000000000000000081526004016128dd90613b82565b60405180910390fd5b50505050565b600080600d60008473ffffffffffffffffffffffffffffffffffffffff1673ffffffffffffffffffffffffffffffffffffffff16815260200190815260200160002080548060200260200160405190810160405280929190818152602001828054801561297857602002820191906000526020600020905b815481526020019060010190808311612964575b5050505050905060005b81518110156129f1578181815181106129c4577f4e487b7100000000000000000000000000000000000000000000000000000000600052603260045260246000fd5b60200260200101518514156129de576001925050506129f8565b80806129e9906141cd565b915050612982565b5060009150505b92915050565b606060405180602001604052806000815250905090565b60606000821415612a5d576040518060400160405280600181526020017f30000000000000000000000000000000000000000000000000000000000000008152509050612bbd565b600082905060005b60008214612a8f578080612a78906141cd565b915050600a82612a889190613fda565b9150612a65565b60008167ffffffffffffffff811115612ad1577f4e487b7100000000000000000000000000000000000000000000000000000000600052604160045260246000fd5b6040519080825280601f01601f191660200182016040528015612b035781602001600182028036833780820191505090505b5090505b60008514612bb657600182612b1c9190614065565b9150600a85612b2b9190614240565b6030612b379190613f84565b60f81b818381518110612b73577f4e487b7100000000000000000000000000000000000000000000000000000000600052603260045260246000fd5b60200101907effffffffffffffffffffffffffffffffffffffffffffffffffffffffffffff1916908160001a905350600a85612baf9190613fda565b9450612b07565b8093505050505b919050565b60008183612bd0919061400b565b905092915050565b60008183612be69190613fda565b905092915050565b505050565b505050565b6000612c198473ffffffffffffffffffffffffffffffffffffffff16612d8f565b15612d82578373ffffffffffffffffffffffffffffffffffffffff1663150b7a02612c42611ecb565b8786866040518563ffffffff1660e01b8152600401612c649493929190613a77565b602060405180830381600087803b158015612c7e57600080fd5b505af1925050508015612caf57506040513d601f19601f82011682018060405250810190612cac91906132a7565b60015b612d32573d8060008114612cdf576040519150601f19603f3d011682016040523d82523d6000602084013e612ce4565b606091505b50600081511415612d2a576040517f08c379a0000000000000000000000000000000000000000000000000000000008152600401612d2190613b82565b60405180910390fd5b805181602001fd5b63150b7a0260e01b7bffffffffffffffffffffffffffffffffffffffffffffffffffffffff1916817bffffffffffffffffffffffffffffffffffffffffffffffffffffffff191614915050612d87565b600190505b949350505050565b6000808273ffffffffffffffffffffffffffffffffffffffff163b119050919050565b828054612dbe9061416a565b90600052602060002090601f016020900481019282612de05760008555612e27565b82601f10612df957805160ff1916838001178555612e27565b82800160010185558215612e27579182015b82811115612e26578251825591602001919060010190612e0b565b5b509050612e349190612ed8565b5090565b828054828255906000526020600020908101928215612ec7579160200282015b82811115612ec657823573ffffffffffffffffffffffffffffffffffffffff168260006101000a81548173ffffffffffffffffffffffffffffffffffffffff021916908373ffffffffffffffffffffffffffffffffffffffff16021790555091602001919060010190612e58565b5b509050612ed49190612ed8565b5090565b5b80821115612ef1576000816000905550600101612ed9565b5090565b6000612f08612f0384613ea6565b613e81565b905082815260208101848484011115612f2057600080fd5b612f2b848285614128565b509392505050565b6000612f46612f4184613ed7565b613e81565b905082815260208101848484011115612f5e57600080fd5b612f69848285614128565b509392505050565b600081359050612f808161492a565b92915050565b60008083601f840112612f9857600080fd5b8235905067ffffffffffffffff811115612fb157600080fd5b602083019150836020820283011115612fc957600080fd5b9250929050565b60008083601f840112612fe257600080fd5b8235905067ffffffffffffffff811115612ffb57600080fd5b60208301915083602082028301111561301357600080fd5b9250929050565b60008135905061302981614941565b92915050565b60008135905061303e81614958565b92915050565b60008151905061305381614958565b92915050565b600082601f83011261306a57600080fd5b813561307a848260208601612ef5565b91505092915050565b600082601f83011261309457600080fd5b81356130a4848260208601612f33565b91505092915050565b6000813590506130bc8161496f565b92915050565b6000813590506130d181614986565b92915050565b6000602082840312156130e957600080fd5b60006130f784828501612f71565b91505092915050565b6000806040838503121561311357600080fd5b600061312185828601612f71565b925050602061313285828601612f71565b9150509250929050565b60008060006060848603121561315157600080fd5b600061315f86828701612f71565b935050602061317086828701612f71565b9250506040613181868287016130c2565b9150509250925092565b600080600080608085870312156131a157600080fd5b60006131af87828801612f71565b94505060206131c087828801612f71565b93505060406131d1878288016130c2565b925050606085013567ffffffffffffffff8111156131ee57600080fd5b6131fa87828801613059565b91505092959194509250565b6000806040838503121561321957600080fd5b600061322785828601612f71565b92505060206132388582860161301a565b9150509250929050565b6000806040838503121561325557600080fd5b600061326385828601612f71565b9250506020613274858286016130c2565b9150509250929050565b60006020828403121561329057600080fd5b600061329e8482850161302f565b91505092915050565b6000602082840312156132b957600080fd5b60006132c784828501613044565b91505092915050565b6000806000806000606086880312156132e857600080fd5b600086013567ffffffffffffffff81111561330257600080fd5b61330e88828901613083565b955050602086013567ffffffffffffffff81111561332b57600080fd5b61333788828901612f86565b9450945050604086013567ffffffffffffffff81111561335657600080fd5b61336288828901612fd0565b92509250509295509295909350565b600080600080600080600060a0888a03121561338c57600080fd5b600088013567ffffffffffffffff8111156133a657600080fd5b6133b28a828b01613083565b97505060206133c38a828b016130c2565b96505060406133d48a828b016130c2565b955050606088013567ffffffffffffffff8111156133f157600080fd5b6133fd8a828b01612f86565b9450945050608088013567ffffffffffffffff81111561341c57600080fd5b6134288a828b01612fd0565b925092505092959891949750929550565b60006020828403121561344b57600080fd5b6000613459848285016130ad565b91505092915050565b60006020828403121561347457600080fd5b6000613482848285016130c2565b91505092915050565b6000806040838503121561349e57600080fd5b60006134ac858286016130c2565b92505060206134bd85828601612f71565b9150509250929050565b6000806000806000606086880312156134df57600080fd5b60006134ed888289016130c2565b955050602086013567ffffffffffffffff81111561350a57600080fd5b61351688828901612f86565b9450945050604086013567ffffffffffffffff81111561353557600080fd5b61354188828901612fd0565b92509250509295509295909350565b6000806040838503121561356357600080fd5b6000613571858286016130c2565b9250506020613582858286016130c2565b9150509250929050565b60006135988383613a1a565b60208301905092915050565b6135ad81614099565b82525050565b60006135be82613f18565b6135c88185613f46565b93506135d383613f08565b8060005b838110156136045781516135eb888261358c565b97506135f683613f39565b9250506001810190506135d7565b5085935050505092915050565b61361a816140ab565b82525050565b600061362b82613f23565b6136358185613f57565b9350613645818560208601614137565b61364e8161432d565b840191505092915050565b600061366482613f2e565b61366e8185613f68565b935061367e818560208601614137565b6136878161432d565b840191505092915050565b600061369d82613f2e565b6136a78185613f79565b93506136b7818560208601614137565b80840191505092915050565b60006136d0601583613f68565b91506136db8261433e565b602082019050919050565b60006136f3600d83613f68565b91506136fe82614367565b602082019050919050565b6000613716601283613f68565b915061372182614390565b602082019050919050565b6000613739603283613f68565b9150613744826143b9565b604082019050919050565b600061375c602383613f68565b915061376782614408565b604082019050919050565b600061377f602583613f68565b915061378a82614457565b604082019050919050565b60006137a2601c83613f68565b91506137ad826144a6565b602082019050919050565b60006137c5601283613f68565b91506137d0826144cf565b602082019050919050565b60006137e8602483613f68565b91506137f3826144f8565b604082019050919050565b600061380b601983613f68565b915061381682614547565b602082019050919050565b600061382e602c83613f68565b915061383982614570565b604082019050919050565b6000613851603883613f68565b915061385c826145bf565b604082019050919050565b6000613874602a83613f68565b915061387f8261460e565b604082019050919050565b6000613897602983613f68565b91506138a28261465d565b604082019050919050565b60006138ba602083613f68565b91506138c5826146ac565b602082019050919050565b60006138dd602c83613f68565b91506138e8826146d5565b604082019050919050565b6000613900600c83613f68565b915061390b82614724565b602082019050919050565b6000613923602f83613f68565b915061392e8261474d565b604082019050919050565b6000613946602183613f68565b91506139518261479c565b604082019050919050565b6000613969603183613f68565b9150613974826147eb565b604082019050919050565b600061398c602e83613f68565b91506139978261483a565b604082019050919050565b60006139af601083613f68565b91506139ba82614889565b602082019050919050565b60006139d2602183613f68565b91506139dd826148b2565b604082019050919050565b60006139f5601483613f68565b9150613a0082614901565b602082019050919050565b613a14816140e3565b82525050565b613a2381614111565b82525050565b613a3281614111565b82525050565b6000613a448285613692565b9150613a508284613692565b91508190509392505050565b6000602082019050613a7160008301846135a4565b92915050565b6000608082019050613a8c60008301876135a4565b613a9960208301866135a4565b613aa66040830185613a29565b8181036060830152613ab88184613620565b905095945050505050565b60006020820190508181036000830152613add81846135b3565b905092915050565b6000602082019050613afa6000830184613611565b92915050565b60006020820190508181036000830152613b1a8184613659565b905092915050565b60006020820190508181036000830152613b3b816136c3565b9050919050565b60006020820190508181036000830152613b5b816136e6565b9050919050565b60006020820190508181036000830152613b7b81613709565b9050919050565b60006020820190508181036000830152613b9b8161372c565b9050919050565b60006020820190508181036000830152613bbb8161374f565b9050919050565b60006020820190508181036000830152613bdb81613772565b9050919050565b60006020820190508181036000830152613bfb81613795565b9050919050565b60006020820190508181036000830152613c1b816137b8565b9050919050565b60006020820190508181036000830152613c3b816137db565b9050919050565b60006020820190508181036000830152613c5b816137fe565b9050919050565b60006020820190508181036000830152613c7b81613821565b9050919050565b60006020820190508181036000830152613c9b81613844565b9050919050565b60006020820190508181036000830152613cbb81613867565b9050919050565b60006020820190508181036000830152613cdb8161388a565b9050919050565b60006020820190508181036000830152613cfb816138ad565b9050919050565b60006020820190508181036000830152613d1b816138d0565b9050919050565b60006020820190508181036000830152613d3b816138f3565b9050919050565b60006020820190508181036000830152613d5b81613916565b9050919050565b60006020820190508181036000830152613d7b81613939565b9050919050565b60006020820190508181036000830152613d9b8161395c565b9050919050565b60006020820190508181036000830152613dbb8161397f565b9050919050565b60006020820190508181036000830152613ddb816139a2565b9050919050565b60006020820190508181036000830152613dfb816139c5565b9050919050565b60006020820190508181036000830152613e1b816139e8565b9050919050565b6000602082019050613e376000830184613a0b565b92915050565b6000602082019050613e526000830184613a29565b92915050565b6000604082019050613e6d6000830185613a29565b613e7a6020830184613a29565b9392505050565b6000613e8b613e9c565b9050613e97828261419c565b919050565b6000604051905090565b600067ffffffffffffffff821115613ec157613ec06142fe565b5b613eca8261432d565b9050602081019050919050565b600067ffffffffffffffff821115613ef257613ef16142fe565b5b613efb8261432d565b9050602081019050919050565b6000819050602082019050919050565b600081519050919050565b600081519050919050565b600081519050919050565b6000602082019050919050565b600082825260208201905092915050565b600082825260208201905092915050565b600082825260208201905092915050565b600081905092915050565b6000613f8f82614111565b9150613f9a83614111565b9250827fffffffffffffffffffffffffffffffffffffffffffffffffffffffffffffffff03821115613fcf57613fce614271565b5b828201905092915050565b6000613fe582614111565b9150613ff083614111565b92508261400057613fff6142a0565b5b828204905092915050565b600061401682614111565b915061402183614111565b9250817fffffffffffffffffffffffffffffffffffffffffffffffffffffffffffffffff048311821515161561405a57614059614271565b5b828202905092915050565b600061407082614111565b915061407b83614111565b92508282101561408e5761408d614271565b5b828203905092915050565b60006140a4826140f1565b9050919050565b60008115159050919050565b60007fffffffff0000000000000000000000000000000000000000000000000000000082169050919050565b600061ffff82169050919050565b600073ffffffffffffffffffffffffffffffffffffffff82169050919050565b6000819050919050565b600060ff82169050919050565b82818337600083830152505050565b60005b8381101561415557808201518184015260208101905061413a565b83811115614164576000848401525b50505050565b6000600282049050600182168061418257607f821691505b60208210811415614196576141956142cf565b5b50919050565b6141a58261432d565b810181811067ffffffffffffffff821117156141c4576141c36142fe565b5b80604052505050565b60006141d882614111565b91507fffffffffffffffffffffffffffffffffffffffffffffffffffffffffffffffff82141561420b5761420a614271565b5b600182019050919050565b60006142218261411b565b915060ff82141561423557614234614271565b5b600182019050919050565b600061424b82614111565b915061425683614111565b925082614266576142656142a0565b5b828206905092915050565b7f4e487b7100000000000000000000000000000000000000000000000000000000600052601160045260246000fd5b7f4e487b7100000000000000000000000000000000000000000000000000000000600052601260045260246000fd5b7f4e487b7100000000000000000000000000000000000000000000000000000000600052602260045260246000fd5b7f4e487b7100000000000000000000000000000000000000000000000000000000600052604160045260246000fd5b6000601f19601f8301169050919050565b7f6e6f7420617070726f766564206f72206f776e65720000000000000000000000600082015250565b7f6e6f2073656e642076616c756500000000000000000000000000000000000000600082015250565b7f5f696420646f6573206e6f742065786973740000000000000000000000000000600082015250565b7f4552433732313a207472616e7366657220746f206e6f6e20455243373231526560008201527f63656976657220696d706c656d656e7465720000000000000000000000000000602082015250565b7f616d6f756e74206d7573742062652067726561746572207468616e203130302060008201527f7765690000000000000000000000000000000000000000000000000000000000602082015250565b7f4552433732313a207472616e736665722066726f6d20696e636f72726563742060008201527f6f776e6572000000000000000000000000000000000000000000000000000000602082015250565b7f4552433732313a20746f6b656e20616c7265616479206d696e74656400000000600082015250565b7f696e73756666696369656e742076616c75650000000000000000000000000000600082015250565b7f4552433732313a207472616e7366657220746f20746865207a65726f2061646460008201527f7265737300000000000000000000000000000000000000000000000000000000602082015250565b7f4552433732313a20617070726f766520746f2063616c6c657200000000000000600082015250565b7f4552433732313a206f70657261746f7220717565727920666f72206e6f6e657860008201527f697374656e7420746f6b656e0000000000000000000000000000000000000000602082015250565b7f4552433732313a20617070726f76652063616c6c6572206973206e6f74206f7760008201527f6e6572206e6f7220617070726f76656420666f7220616c6c0000000000000000602082015250565b7f4552433732313a2062616c616e636520717565727920666f7220746865207a6560008201527f726f206164647265737300000000000000000000000000000000000000000000602082015250565b7f4552433732313a206f776e657220717565727920666f72206e6f6e657869737460008201527f656e7420746f6b656e0000000000000000000000000000000000000000000000602082015250565b7f4552433732313a206d696e7420746f20746865207a65726f2061646472657373600082015250565b7f4552433732313a20617070726f76656420717565727920666f72206e6f6e657860008201527f697374656e7420746f6b656e0000000000000000000000000000000000000000602082015250565b7f63616e206e6f7420766965770000000000000000000000000000000000000000600082015250565b7f4552433732314d657461646174613a2055524920717565727920666f72206e6f60008201527f6e6578697374656e7420746f6b656e0000000000000000000000000000000000602082015250565b7f4552433732313a20617070726f76616c20746f2063757272656e74206f776e6560008201527f7200000000000000000000000000000000000000000000000000000000000000602082015250565b7f4552433732313a207472616e736665722063616c6c6572206973206e6f74206f60008201527f776e6572206e6f7220617070726f766564000000000000000000000000000000602082015250565b7f726563697069656e747320616e6420616c6c6f636174696f6e7320617265206e60008201527f6f742073616d65206c656e677468000000000000000000000000000000000000602082015250565b7f6661696c656420746f2072656465656d00000000000000000000000000000000600082015250565b7f616c6c6f636174696f6e7320646f206e6f742061646420757020746f2031303060008201527f2500000000000000000000000000000000000000000000000000000000000000602082015250565b7f746f6b656e20646f6573206e6f74206578697374000000000000000000000000600082015250565b61493381614099565b811461493e57600080fd5b50565b61494a816140ab565b811461495557600080fd5b50565b614961816140b7565b811461496c57600080fd5b50565b614978816140e3565b811461498357600080fd5b50565b61498f81614111565b811461499a57600080fd5b5056fea264697066735822122010c57329751ff7f5446ca20b76a893f08d177c93a117b8fa65356017daae67c564736f6c63430008040033",
  "linkReferences": {},
  "deployedLinkReferences": {}
}