{
  "_format": "hh-sol-artifact-1",
  "contractName": "PayPerView",
  "sourceName": "src/backend/contracts/PayPerView.sol",
  "abi": [
    {
      "inputs": [
        {
          "internalType": "string",
          "name": "name",
          "type": "string"
        },
        {
          "internalType": "string",
          "name": "symbol",
          "type": "string"
        }
      ],
      "stateMutability": "nonpayable",
      "type": "constructor"
    },
    {
      "anonymous": false,
      "inputs": [
        {
          "indexed": true,
          "internalType": "address",
          "name": "owner",
          "type": "address"
        },
        {
          "indexed": true,
          "internalType": "address",
          "name": "approved",
          "type": "address"
        },
        {
          "indexed": true,
          "internalType": "uint256",
          "name": "tokenId",
          "type": "uint256"
        }
      ],
      "name": "Approval",
      "type": "event"
    },
    {
      "anonymous": false,
      "inputs": [
        {
          "indexed": true,
          "internalType": "address",
          "name": "owner",
          "type": "address"
        },
        {
          "indexed": true,
          "internalType": "address",
          "name": "operator",
          "type": "address"
        },
        {
          "indexed": false,
          "internalType": "bool",
          "name": "approved",
          "type": "bool"
        }
      ],
      "name": "ApprovalForAll",
      "type": "event"
    },
    {
      "anonymous": false,
      "inputs": [
        {
          "indexed": true,
          "internalType": "address",
          "name": "from",
          "type": "address"
        },
        {
          "indexed": true,
          "internalType": "address",
          "name": "to",
          "type": "address"
        },
        {
          "indexed": true,
          "internalType": "uint256",
          "name": "tokenId",
          "type": "uint256"
        }
      ],
      "name": "Transfer",
      "type": "event"
    },
    {
      "inputs": [
        {
          "internalType": "address",
          "name": "viewer",
          "type": "address"
        },
        {
          "internalType": "uint256",
          "name": "_id",
          "type": "uint256"
        }
      ],
      "name": "addViewer",
      "outputs": [],
      "stateMutability": "payable",
      "type": "function"
    },
    {
      "inputs": [
        {
          "internalType": "address",
          "name": "viewer",
          "type": "address"
        },
        {
          "internalType": "uint256",
          "name": "_id",
          "type": "uint256"
        },
        {
          "internalType": "address",
          "name": "stable",
          "type": "address"
        }
      ],
      "name": "addViewerWithStable",
      "outputs": [],
      "stateMutability": "nonpayable",
      "type": "function"
    },
    {
      "inputs": [
        {
          "internalType": "uint256",
          "name": "",
          "type": "uint256"
        },
        {
          "internalType": "address",
          "name": "",
          "type": "address"
        }
      ],
      "name": "allocationOfRoyalties",
      "outputs": [
        {
          "internalType": "uint16",
          "name": "",
          "type": "uint16"
        }
      ],
      "stateMutability": "view",
      "type": "function"
    },
    {
      "inputs": [
        {
          "internalType": "address",
          "name": "to",
          "type": "address"
        },
        {
          "internalType": "uint256",
          "name": "tokenId",
          "type": "uint256"
        }
      ],
      "name": "approve",
      "outputs": [],
      "stateMutability": "nonpayable",
      "type": "function"
    },
    {
      "inputs": [
        {
          "internalType": "address",
          "name": "owner",
          "type": "address"
        }
      ],
      "name": "balanceOf",
      "outputs": [
        {
          "internalType": "uint256",
          "name": "",
          "type": "uint256"
        }
      ],
      "stateMutability": "view",
      "type": "function"
    },
    {
      "inputs": [
        {
          "internalType": "address",
          "name": "viewer",
          "type": "address"
        },
        {
          "internalType": "uint256",
          "name": "_id",
          "type": "uint256"
        }
      ],
      "name": "canView",
      "outputs": [
        {
          "internalType": "bool",
          "name": "",
          "type": "bool"
        }
      ],
      "stateMutability": "view",
      "type": "function"
    },
    {
      "inputs": [
        {
          "internalType": "uint64",
          "name": "dollars",
          "type": "uint64"
        }
      ],
      "name": "convertDollarsToNanoAvax",
      "outputs": [
        {
          "internalType": "uint256",
          "name": "",
          "type": "uint256"
        }
      ],
      "stateMutability": "view",
      "type": "function"
    },
    {
      "inputs": [
        {
          "internalType": "uint256",
          "name": "tokenId",
          "type": "uint256"
        }
      ],
      "name": "getApproved",
      "outputs": [
        {
          "internalType": "address",
          "name": "",
          "type": "address"
        }
      ],
      "stateMutability": "view",
      "type": "function"
    },
    {
      "inputs": [],
      "name": "getLatestPrice",
      "outputs": [
        {
          "internalType": "int256",
          "name": "",
          "type": "int256"
        }
      ],
      "stateMutability": "view",
      "type": "function"
    },
    {
      "inputs": [],
      "name": "getTokenIdsAddressCanRedeemFrom",
      "outputs": [
        {
          "internalType": "uint256[]",
          "name": "",
          "type": "uint256[]"
        }
      ],
      "stateMutability": "view",
      "type": "function"
    },
    {
      "inputs": [
        {
          "internalType": "uint256",
          "name": "_id",
          "type": "uint256"
        }
      ],
      "name": "getTokenURI",
      "outputs": [
        {
          "internalType": "string",
          "name": "",
          "type": "string"
        }
      ],
      "stateMutability": "view",
      "type": "function"
    },
    {
      "inputs": [
        {
          "internalType": "address",
          "name": "_priceFeed",
          "type": "address"
        }
      ],
      "name": "init",
      "outputs": [],
      "stateMutability": "nonpayable",
      "type": "function"
    },
    {
      "inputs": [
        {
          "internalType": "address",
          "name": "owner",
          "type": "address"
        },
        {
          "internalType": "address",
          "name": "operator",
          "type": "address"
        }
      ],
      "name": "isApprovedForAll",
      "outputs": [
        {
          "internalType": "bool",
          "name": "",
          "type": "bool"
        }
      ],
      "stateMutability": "view",
      "type": "function"
    },
    {
      "inputs": [
        {
          "internalType": "string",
          "name": "_tokenURI",
          "type": "string"
        }
      ],
      "name": "mint",
      "outputs": [
        {
          "internalType": "uint256",
          "name": "",
          "type": "uint256"
        }
      ],
      "stateMutability": "nonpayable",
      "type": "function"
    },
    {
      "inputs": [
        {
          "internalType": "string",
          "name": "_tokenURI",
          "type": "string"
        },
        {
          "internalType": "uint256",
          "name": "_duration",
          "type": "uint256"
        },
        {
          "internalType": "uint64",
          "name": "_amount",
          "type": "uint64"
        },
        {
          "internalType": "address[]",
          "name": "_recipients",
          "type": "address[]"
        },
        {
          "internalType": "uint16[]",
          "name": "_allocationPercentages",
          "type": "uint16[]"
        }
      ],
      "name": "mintWithCustomParams",
      "outputs": [
        {
          "internalType": "uint256",
          "name": "",
          "type": "uint256"
        }
      ],
      "stateMutability": "nonpayable",
      "type": "function"
    },
    {
      "inputs": [
        {
          "internalType": "string",
          "name": "_tokenURI",
          "type": "string"
        },
        {
          "internalType": "address[]",
          "name": "_recipients",
          "type": "address[]"
        },
        {
          "internalType": "uint16[]",
          "name": "_allocationPercentages",
          "type": "uint16[]"
        }
      ],
      "name": "mintWithDefaultParams",
      "outputs": [
        {
          "internalType": "uint256",
          "name": "",
          "type": "uint256"
        }
      ],
      "stateMutability": "nonpayable",
      "type": "function"
    },
    {
      "inputs": [],
      "name": "name",
      "outputs": [
        {
          "internalType": "string",
          "name": "",
          "type": "string"
        }
      ],
      "stateMutability": "view",
      "type": "function"
    },
    {
      "inputs": [
        {
          "internalType": "uint256",
          "name": "tokenId",
          "type": "uint256"
        }
      ],
      "name": "ownerOf",
      "outputs": [
        {
          "internalType": "address",
          "name": "",
          "type": "address"
        }
      ],
      "stateMutability": "view",
      "type": "function"
    },
    {
      "inputs": [
        {
          "internalType": "uint256",
          "name": "_id",
          "type": "uint256"
        }
      ],
      "name": "redeemRoyalty",
      "outputs": [],
      "stateMutability": "nonpayable",
      "type": "function"
    },
    {
      "inputs": [
        {
          "internalType": "uint256",
          "name": "_id",
          "type": "uint256"
        }
      ],
      "name": "redeemableRoyaltyPerToken",
      "outputs": [
        {
          "internalType": "uint256",
          "name": "",
          "type": "uint256"
        }
      ],
      "stateMutability": "view",
      "type": "function"
    },
    {
      "inputs": [
        {
          "internalType": "uint256",
          "name": "",
          "type": "uint256"
        },
        {
          "internalType": "uint256",
          "name": "",
          "type": "uint256"
        }
      ],
      "name": "royaltyRecipientsByToken",
      "outputs": [
        {
          "internalType": "address",
          "name": "",
          "type": "address"
        }
      ],
      "stateMutability": "view",
      "type": "function"
    },
    {
      "inputs": [
        {
          "internalType": "address",
          "name": "from",
          "type": "address"
        },
        {
          "internalType": "address",
          "name": "to",
          "type": "address"
        },
        {
          "internalType": "uint256",
          "name": "tokenId",
          "type": "uint256"
        }
      ],
      "name": "safeTransferFrom",
      "outputs": [],
      "stateMutability": "nonpayable",
      "type": "function"
    },
    {
      "inputs": [
        {
          "internalType": "address",
          "name": "from",
          "type": "address"
        },
        {
          "internalType": "address",
          "name": "to",
          "type": "address"
        },
        {
          "internalType": "uint256",
          "name": "tokenId",
          "type": "uint256"
        },
        {
          "internalType": "bytes",
          "name": "_data",
          "type": "bytes"
        }
      ],
      "name": "safeTransferFrom",
      "outputs": [],
      "stateMutability": "nonpayable",
      "type": "function"
    },
    {
      "inputs": [
        {
          "internalType": "uint256",
          "name": "_id",
          "type": "uint256"
        },
        {
          "internalType": "uint16",
          "name": "_amount",
          "type": "uint16"
        }
      ],
      "name": "setAmountToView",
      "outputs": [],
      "stateMutability": "nonpayable",
      "type": "function"
    },
    {
      "inputs": [
        {
          "internalType": "address",
          "name": "operator",
          "type": "address"
        },
        {
          "internalType": "bool",
          "name": "approved",
          "type": "bool"
        }
      ],
      "name": "setApprovalForAll",
      "outputs": [],
      "stateMutability": "nonpayable",
      "type": "function"
    },
    {
      "inputs": [
        {
          "internalType": "uint256",
          "name": "_id",
          "type": "uint256"
        },
        {
          "internalType": "address[]",
          "name": "_recipients",
          "type": "address[]"
        },
        {
          "internalType": "uint16[]",
          "name": "_allocationPercentages",
          "type": "uint16[]"
        }
      ],
      "name": "setRoyaltyRecipients",
      "outputs": [],
      "stateMutability": "nonpayable",
      "type": "function"
    },
    {
      "inputs": [
        {
          "internalType": "uint256",
          "name": "_id",
          "type": "uint256"
        },
        {
          "internalType": "uint256",
          "name": "_duration",
          "type": "uint256"
        }
      ],
      "name": "setViewDuration",
      "outputs": [],
      "stateMutability": "nonpayable",
      "type": "function"
    },
    {
      "inputs": [
        {
          "internalType": "bytes4",
          "name": "interfaceId",
          "type": "bytes4"
        }
      ],
      "name": "supportsInterface",
      "outputs": [
        {
          "internalType": "bool",
          "name": "",
          "type": "bool"
        }
      ],
      "stateMutability": "view",
      "type": "function"
    },
    {
      "inputs": [],
      "name": "symbol",
      "outputs": [
        {
          "internalType": "string",
          "name": "",
          "type": "string"
        }
      ],
      "stateMutability": "view",
      "type": "function"
    },
    {
      "inputs": [],
      "name": "tokenCount",
      "outputs": [
        {
          "internalType": "uint256",
          "name": "",
          "type": "uint256"
        }
      ],
      "stateMutability": "view",
      "type": "function"
    },
    {
      "inputs": [
        {
          "internalType": "uint256",
          "name": "tokenId",
          "type": "uint256"
        }
      ],
      "name": "tokenURI",
      "outputs": [
        {
          "internalType": "string",
          "name": "",
          "type": "string"
        }
      ],
      "stateMutability": "view",
      "type": "function"
    },
    {
      "inputs": [
        {
          "internalType": "uint256",
          "name": "_id",
          "type": "uint256"
        }
      ],
      "name": "totalRoyaltyCollected",
      "outputs": [
        {
          "internalType": "uint256",
          "name": "",
          "type": "uint256"
        }
      ],
      "stateMutability": "view",
      "type": "function"
    },
    {
      "inputs": [
        {
          "internalType": "address",
          "name": "from",
          "type": "address"
        },
        {
          "internalType": "address",
          "name": "to",
          "type": "address"
        },
        {
          "internalType": "uint256",
          "name": "tokenId",
          "type": "uint256"
        }
      ],
      "name": "transferFrom",
      "outputs": [],
      "stateMutability": "nonpayable",
      "type": "function"
    },
    {
      "inputs": [
        {
          "internalType": "address",
          "name": "",
          "type": "address"
        },
        {
          "internalType": "uint256",
          "name": "",
          "type": "uint256"
        }
      ],
      "name": "viewExpiration",
      "outputs": [
        {
          "internalType": "uint256",
          "name": "",
          "type": "uint256"
        }
      ],
      "stateMutability": "view",
      "type": "function"
    },
    {
      "inputs": [
        {
          "internalType": "uint256",
          "name": "_id",
          "type": "uint256"
        }
      ],
      "name": "viewTokenConcealedURI",
      "outputs": [
        {
          "internalType": "string",
          "name": "",
          "type": "string"
        }
      ],
      "stateMutability": "view",
      "type": "function"
    },
    {
      "inputs": [
        {
          "internalType": "uint256",
          "name": "_id",
          "type": "uint256"
        }
      ],
      "name": "viewingDetailsFor",
      "outputs": [
        {
          "internalType": "uint256",
          "name": "viewDuration",
          "type": "uint256"
        },
        {
          "internalType": "uint64",
          "name": "amountToView",
          "type": "uint64"
        }
      ],
      "stateMutability": "view",
      "type": "function"
    }
  ],
  "bytecode": "0x608060405260006010553480156200001657600080fd5b5060405162005d5938038062005d5983398181016040528101906200003c919062000220565b8181816000908051906020019062000056929190620000fe565b5080600190805190602001906200006f929190620000fe565b50505033600f60006101000a81548173ffffffffffffffffffffffffffffffffffffffff021916908373ffffffffffffffffffffffffffffffffffffffff1602179055506101f4601160046101000a81548161ffff021916908361ffff16021790555062093a80601160006101000a81548163ffffffff021916908363ffffffff160217905550505062000403565b8280546200010c9062000328565b90600052602060002090601f0160209004810192826200013057600085556200017c565b82601f106200014b57805160ff19168380011785556200017c565b828001600101855582156200017c579182015b828111156200017b5782518255916020019190600101906200015e565b5b5090506200018b91906200018f565b5090565b5b80821115620001aa57600081600090555060010162000190565b5090565b6000620001c5620001bf84620002bc565b62000293565b905082815260208101848484011115620001de57600080fd5b620001eb848285620002f2565b509392505050565b600082601f8301126200020557600080fd5b815162000217848260208601620001ae565b91505092915050565b600080604083850312156200023457600080fd5b600083015167ffffffffffffffff8111156200024f57600080fd5b6200025d85828601620001f3565b925050602083015167ffffffffffffffff8111156200027b57600080fd5b6200028985828601620001f3565b9150509250929050565b60006200029f620002b2565b9050620002ad82826200035e565b919050565b6000604051905090565b600067ffffffffffffffff821115620002da57620002d9620003c3565b5b620002e582620003f2565b9050602081019050919050565b60005b8381101562000312578082015181840152602081019050620002f5565b8381111562000322576000848401525b50505050565b600060028204905060018216806200034157607f821691505b6020821081141562000358576200035762000394565b5b50919050565b6200036982620003f2565b810181811067ffffffffffffffff821117156200038b576200038a620003c3565b5b80604052505050565b7f4e487b7100000000000000000000000000000000000000000000000000000000600052602260045260246000fd5b7f4e487b7100000000000000000000000000000000000000000000000000000000600052604160045260246000fd5b6000601f19601f8301169050919050565b61594680620004136000396000f3fe60806040526004361061020f5760003560e01c80638ffc093c11610118578063bec41f73116100a0578063cefe63831161006f578063cefe638314610833578063d2aad86114610870578063d85d3d27146108ad578063e985e9c5146108ea578063f54f52ed146109275761020f565b8063bec41f7314610767578063c2496bec14610790578063c2612547146107b9578063c87b56dd146107f65761020f565b8063a03a1ded116100e7578063a03a1ded1461065e578063a22cb4651461069b578063a336380c146106c4578063ab2c9abe14610701578063b88d4fde1461073e5761020f565b80638ffc093c146105a257806395d89b41146105cb5780639f181b5e146105f65780639f8aa4c4146106215761020f565b80632b6355e81161019b5780634cd5adbb1161016a5780634cd5adbb1461049657806362420461146104d45780636352211e146104fd57806370a082311461053a5780638e15f473146105775761020f565b80632b6355e8146103b65780633bb3a24d146103f35780633f4dd3ab1461043057806342842e0e1461046d5761020f565b80630b15c9dc116101e25780630b15c9dc146102e257806319ab453c1461031f5780631b1d639d146103485780631fb3aaf91461036457806323b872dd1461038d5761020f565b806301ffc9a71461021457806306fdde0314610251578063081812fc1461027c578063095ea7b3146102b9575b600080fd5b34801561022057600080fd5b5061023b60048036038101906102369190613d7b565b610952565b604051610248919061475a565b60405180910390f35b34801561025d57600080fd5b50610266610a34565b6040516102739190614790565b60405180910390f35b34801561028857600080fd5b506102a3600480360381019061029e9190613f64565b610ac6565b6040516102b0919061469a565b60405180910390f35b3480156102c557600080fd5b506102e060048036038101906102db9190613cc7565b610b4b565b005b3480156102ee57600080fd5b5061030960048036038101906103049190613cc7565b610c63565b604051610316919061475a565b60405180910390f35b34801561032b57600080fd5b5061034660048036038101906103419190613b5c565b610cbf565b005b610362600480360381019061035d9190613cc7565b610d93565b005b34801561037057600080fd5b5061038b60048036038101906103869190613f64565b610fd9565b005b34801561039957600080fd5b506103b460048036038101906103af9190613bc1565b61118e565b005b3480156103c257600080fd5b506103dd60048036038101906103d89190613f8d565b6111ee565b6040516103ea9190614ad2565b60405180910390f35b3480156103ff57600080fd5b5061041a60048036038101906104159190613f64565b61121e565b6040516104279190614790565b60405180910390f35b34801561043c57600080fd5b5061045760048036038101906104529190613cc7565b6112c3565b6040516104649190614aed565b60405180910390f35b34801561047957600080fd5b50610494600480360381019061048f9190613bc1565b6112e8565b005b3480156104a257600080fd5b506104bd60048036038101906104b89190613f64565b611308565b6040516104cb929190614b08565b60405180910390f35b3480156104e057600080fd5b506104fb60048036038101906104f69190613d03565b611350565b005b34801561050957600080fd5b50610524600480360381019061051f9190613f64565b611701565b604051610531919061469a565b60405180910390f35b34801561054657600080fd5b50610561600480360381019061055c9190613b5c565b6117b3565b60405161056e9190614aed565b60405180910390f35b34801561058357600080fd5b5061058c61186b565b6040516105999190614775565b60405180910390f35b3480156105ae57600080fd5b506105c960048036038101906105c49190614048565b61191b565b005b3480156105d757600080fd5b506105e06119be565b6040516105ed9190614790565b60405180910390f35b34801561060257600080fd5b5061060b611a50565b6040516106189190614aed565b60405180910390f35b34801561062d57600080fd5b5061064860048036038101906106439190613f64565b611a56565b6040516106559190614790565b60405180910390f35b34801561066a57600080fd5b5061068560048036038101906106809190614084565b611b8c565b604051610692919061469a565b60405180910390f35b3480156106a757600080fd5b506106c260048036038101906106bd9190613c8b565b611bda565b005b3480156106d057600080fd5b506106eb60048036038101906106e69190613f64565b611bf0565b6040516106f89190614aed565b60405180910390f35b34801561070d57600080fd5b5061072860048036038101906107239190613f64565b611c03565b6040516107359190614aed565b60405180910390f35b34801561074a57600080fd5b5061076560048036038101906107609190613c10565b611d2b565b005b34801561077357600080fd5b5061078e60048036038101906107899190613fc9565b611d8d565b005b34801561079c57600080fd5b506107b760048036038101906107b29190614084565b612140565b005b3480156107c557600080fd5b506107e060048036038101906107db9190613ea5565b6121df565b6040516107ed9190614aed565b60405180910390f35b34801561080257600080fd5b5061081d60048036038101906108189190613f64565b612266565b60405161082a9190614790565b60405180910390f35b34801561083f57600080fd5b5061085a600480360381019061085591906140c0565b61230d565b6040516108679190614aed565b60405180910390f35b34801561087c57600080fd5b5061089760048036038101906108929190613e0e565b612357565b6040516108a49190614aed565b60405180910390f35b3480156108b957600080fd5b506108d460048036038101906108cf9190613dcd565b61239b565b6040516108e19190614aed565b60405180910390f35b3480156108f657600080fd5b50610911600480360381019061090c9190613b85565b612560565b60405161091e919061475a565b60405180910390f35b34801561093357600080fd5b5061093c6125f4565b6040516109499190614738565b60405180910390f35b60007f80ac58cd000000000000000000000000000000000000000000000000000000007bffffffffffffffffffffffffffffffffffffffffffffffffffffffff1916827bffffffffffffffffffffffffffffffffffffffffffffffffffffffff19161480610a1d57507f5b5e139f000000000000000000000000000000000000000000000000000000007bffffffffffffffffffffffffffffffffffffffffffffffffffffffff1916827bffffffffffffffffffffffffffffffffffffffffffffffffffffffff1916145b80610a2d5750610a2c82612689565b5b9050919050565b606060008054610a439061504b565b80601f0160208091040260200160405190810160405280929190818152602001828054610a6f9061504b565b8015610abc5780601f10610a9157610100808354040283529160200191610abc565b820191906000526020600020905b815481529060010190602001808311610a9f57829003601f168201915b5050505050905090565b6000610ad1826126f3565b610b10576040517f08c379a0000000000000000000000000000000000000000000000000000000008152600401610b0790614972565b60405180910390fd5b6004600083815260200190815260200160002060009054906101000a900473ffffffffffffffffffffffffffffffffffffffff169050919050565b6000610b5682611701565b90508073ffffffffffffffffffffffffffffffffffffffff168373ffffffffffffffffffffffffffffffffffffffff161415610bc7576040517f08c379a0000000000000000000000000000000000000000000000000000000008152600401610bbe906149d2565b60405180910390fd5b8073ffffffffffffffffffffffffffffffffffffffff16610be661275f565b73ffffffffffffffffffffffffffffffffffffffff161480610c155750610c1481610c0f61275f565b612560565b5b610c54576040517f08c379a0000000000000000000000000000000000000000000000000000000008152600401610c4b906148f2565b60405180910390fd5b610c5e8383612767565b505050565b6000610c6e826126f3565b610cad576040517f08c379a0000000000000000000000000000000000000000000000000000000008152600401610ca490614ab2565b60405180910390fd5b610cb78383612820565b905092915050565b600f60009054906101000a900473ffffffffffffffffffffffffffffffffffffffff1673ffffffffffffffffffffffffffffffffffffffff163373ffffffffffffffffffffffffffffffffffffffff1614610d4f576040517f08c379a0000000000000000000000000000000000000000000000000000000008152600401610d46906149f2565b60405180910390fd5b80600e60006101000a81548173ffffffffffffffffffffffffffffffffffffffff021916908373ffffffffffffffffffffffffffffffffffffffff16021790555050565b610d9c816126f3565b610ddb576040517f08c379a0000000000000000000000000000000000000000000000000000000008152600401610dd2906147f2565b60405180910390fd5b610de481612893565b60005b60076000838152602001908152602001600020805490508160ff161015610f5a576000600760008481526020019081526020016000208260ff1681548110610e58577f4e487b7100000000000000000000000000000000000000000000000000000000600052603260045260246000fd5b9060005260206000200160009054906101000a900473ffffffffffffffffffffffffffffffffffffffff169050610ef2610e93843484612912565b600b600086815260200190815260200160002060008473ffffffffffffffffffffffffffffffffffffffff1673ffffffffffffffffffffffffffffffffffffffff168152602001908152602001600020546129dc90919063ffffffff16565b600b600085815260200190815260200160002060008373ffffffffffffffffffffffffffffffffffffffff1673ffffffffffffffffffffffffffffffffffffffff16815260200190815260200160002081905550508080610f52906150f7565b915050610de7565b50610f816009600083815260200190815260200160002054426129dc90919063ffffffff16565b600660008473ffffffffffffffffffffffffffffffffffffffff1673ffffffffffffffffffffffffffffffffffffffff1681526020019081526020016000206000838152602001908152602001600020819055505050565b610fe2816126f3565b611021576040517f08c379a0000000000000000000000000000000000000000000000000000000008152600401611018906147f2565b60405180910390fd5b6000600b600083815260200190815260200160002060003373ffffffffffffffffffffffffffffffffffffffff1673ffffffffffffffffffffffffffffffffffffffff16815260200190815260200160002054905060008114156110ba576040517f08c379a00000000000000000000000000000000000000000000000000000000081526004016110b1906147d2565b60405180910390fd5b6000600b600084815260200190815260200160002060003373ffffffffffffffffffffffffffffffffffffffff1673ffffffffffffffffffffffffffffffffffffffff1681526020019081526020016000208190555060003373ffffffffffffffffffffffffffffffffffffffff166108fc839081150290604051600060405180830381858888f19350505050905080611189576040517f08c379a000000000000000000000000000000000000000000000000000000000815260040161118090614a72565b60405180910390fd5b505050565b61119f61119961275f565b826129f2565b6111de576040517f08c379a00000000000000000000000000000000000000000000000000000000081526004016111d590614a12565b60405180910390fd5b6111e9838383612ad0565b505050565b60086020528160005260406000206020528060005260406000206000915091509054906101000a900461ffff1681565b6060600c6000838152602001908152602001600020805461123e9061504b565b80601f016020809104026020016040519081016040528092919081815260200182805461126a9061504b565b80156112b75780601f1061128c576101008083540402835291602001916112b7565b820191906000526020600020905b81548152906001019060200180831161129a57829003601f168201915b50505050509050919050565b6006602052816000526040600020602052806000526040600020600091509150505481565b61130383838360405180602001604052806000815250611d2b565b505050565b6000806009600084815260200190815260200160002054600a600085815260200190815260200160002060009054906101000a900467ffffffffffffffff1691509150915091565b611359826126f3565b611398576040517f08c379a000000000000000000000000000000000000000000000000000000000815260040161138f906147f2565b60405180910390fd5b600081905060008173ffffffffffffffffffffffffffffffffffffffff1663313ce5676040518163ffffffff1660e01b815260040160206040518083038186803b1580156113e557600080fd5b505afa1580156113f9573d6000803e3d6000fd5b505050506040513d601f19601f8201168201806040525081019061141d9190614160565b9050600060028261142e9190614f12565b600a61143a9190614d66565b600a600087815260200190815260200160002060009054906101000a900467ffffffffffffffff1667ffffffffffffffff166114769190614e84565b90508273ffffffffffffffffffffffffffffffffffffffff166323b872dd3330846040518463ffffffff1660e01b81526004016114b5939291906146b5565b602060405180830381600087803b1580156114cf57600080fd5b505af11580156114e3573d6000803e3d6000fd5b505050506040513d601f19601f820116820180604052508101906115079190613d52565b5060005b60076000878152602001908152602001600020805490508160ff16101561167e576000600760008881526020019081526020016000208260ff168154811061157c577f4e487b7100000000000000000000000000000000000000000000000000000000600052603260045260246000fd5b9060005260206000200160009054906101000a900473ffffffffffffffffffffffffffffffffffffffff1690506116166115b7888584612d37565b600b60008a815260200190815260200160002060008473ffffffffffffffffffffffffffffffffffffffff1673ffffffffffffffffffffffffffffffffffffffff168152602001908152602001600020546129dc90919063ffffffff16565b600b600089815260200190815260200160002060008373ffffffffffffffffffffffffffffffffffffffff1673ffffffffffffffffffffffffffffffffffffffff16815260200190815260200160002081905550508080611676906150f7565b91505061150b565b506116a56009600087815260200190815260200160002054426129dc90919063ffffffff16565b600660008873ffffffffffffffffffffffffffffffffffffffff1673ffffffffffffffffffffffffffffffffffffffff168152602001908152602001600020600087815260200190815260200160002081905550505050505050565b6000806002600084815260200190815260200160002060009054906101000a900473ffffffffffffffffffffffffffffffffffffffff169050600073ffffffffffffffffffffffffffffffffffffffff168173ffffffffffffffffffffffffffffffffffffffff1614156117aa576040517f08c379a00000000000000000000000000000000000000000000000000000000081526004016117a190614932565b60405180910390fd5b80915050919050565b60008073ffffffffffffffffffffffffffffffffffffffff168273ffffffffffffffffffffffffffffffffffffffff161415611824576040517f08c379a000000000000000000000000000000000000000000000000000000000815260040161181b90614912565b60405180910390fd5b600360008373ffffffffffffffffffffffffffffffffffffffff1673ffffffffffffffffffffffffffffffffffffffff168152602001908152602001600020549050919050565b600080600e60009054906101000a900473ffffffffffffffffffffffffffffffffffffffff1673ffffffffffffffffffffffffffffffffffffffff1663feaf968c6040518163ffffffff1660e01b815260040160a06040518083038186803b1580156118d657600080fd5b505afa1580156118ea573d6000803e3d6000fd5b505050506040513d601f19601f8201168201806040525081019061190e91906140e9565b5050509150508091505090565b611924826126f3565b611963576040517f08c379a000000000000000000000000000000000000000000000000000000000815260040161195a906147f2565b60405180910390fd5b61196d33836129f2565b6119ac576040517f08c379a00000000000000000000000000000000000000000000000000000000081526004016119a3906147b2565b60405180910390fd5b6119ba828261ffff16612dcb565b5050565b6060600180546119cd9061504b565b80601f01602080910402602001604051908101604052809291908181526020018280546119f99061504b565b8015611a465780601f10611a1b57610100808354040283529160200191611a46565b820191906000526020600020905b815481529060010190602001808311611a2957829003601f168201915b5050505050905090565b60105481565b6060611a61826126f3565b611aa0576040517f08c379a0000000000000000000000000000000000000000000000000000000008152600401611a97906147f2565b60405180910390fd5b611aaa3383612820565b611ae9576040517f08c379a0000000000000000000000000000000000000000000000000000000008152600401611ae090614992565b60405180910390fd5b600c60008381526020019081526020016000208054611b079061504b565b80601f0160208091040260200160405190810160405280929190818152602001828054611b339061504b565b8015611b805780601f10611b5557610100808354040283529160200191611b80565b820191906000526020600020905b815481529060010190602001808311611b6357829003601f168201915b50505050509050919050565b60076020528160005260406000208181548110611ba857600080fd5b906000526020600020016000915091509054906101000a900473ffffffffffffffffffffffffffffffffffffffff1681565b611bec611be561275f565b8383612e57565b5050565b6000611bfc8233612fc4565b9050919050565b6000611c0e826126f3565b611c4d576040517f08c379a0000000000000000000000000000000000000000000000000000000008152600401611c44906147f2565b60405180910390fd5b6000805b60076000858152602001908152602001600020805490508160ff161015611d21576000600760008681526020019081526020016000208260ff1681548110611cc2577f4e487b7100000000000000000000000000000000000000000000000000000000600052603260045260246000fd5b9060005260206000200160009054906101000a900473ffffffffffffffffffffffffffffffffffffffff169050611d0b611cfc8683612fc4565b846129dc90919063ffffffff16565b9250508080611d19906150f7565b915050611c51565b5080915050919050565b611d3c611d3661275f565b836129f2565b611d7b576040517f08c379a0000000000000000000000000000000000000000000000000000000008152600401611d7290614a12565b60405180910390fd5b611d878484848461301f565b50505050565b611d96836126f3565b611dd5576040517f08c379a0000000000000000000000000000000000000000000000000000000008152600401611dcc90614ab2565b60405180910390fd5b611ddf33846129f2565b611e1e576040517f08c379a0000000000000000000000000000000000000000000000000000000008152600401611e15906147b2565b60405180910390fd5b8051825114611e62576040517f08c379a0000000000000000000000000000000000000000000000000000000008152600401611e5990614a52565b60405180910390fd5b6000805b82518110156120cd576000848281518110611eaa577f4e487b7100000000000000000000000000000000000000000000000000000000600052603260045260246000fd5b60200260200101519050600073ffffffffffffffffffffffffffffffffffffffff168173ffffffffffffffffffffffffffffffffffffffff161415611eee57600080fd5b6103e8848381518110611f2a577f4e487b7100000000000000000000000000000000000000000000000000000000600052603260045260246000fd5b602002602001015161ffff1611611f4057600080fd5b838281518110611f79577f4e487b7100000000000000000000000000000000000000000000000000000000600052603260045260246000fd5b60200260200101516008600088815260200190815260200160002060008373ffffffffffffffffffffffffffffffffffffffff1673ffffffffffffffffffffffffffffffffffffffff16815260200190815260200160002060006101000a81548161ffff021916908361ffff160217905550611ff5868261307b565b61206057600d60008273ffffffffffffffffffffffffffffffffffffffff1673ffffffffffffffffffffffffffffffffffffffff1681526020019081526020016000208690806001815401808255809150506001900390600052602060002001600090919091909150555b6120b784838151811061209c577f4e487b7100000000000000000000000000000000000000000000000000000000600052603260045260246000fd5b602002602001015161ffff16846129dc90919063ffffffff16565b92505080806120c5906150ae565b915050611e66565b50826007600086815260200190815260200160002090805190602001906120f5929190613737565b50612710811461213a576040517f08c379a000000000000000000000000000000000000000000000000000000000815260040161213190614a92565b60405180910390fd5b50505050565b612149826126f3565b612188576040517f08c379a000000000000000000000000000000000000000000000000000000000815260040161217f906147f2565b60405180910390fd5b61219233836129f2565b6121d1576040517f08c379a00000000000000000000000000000000000000000000000000000000081526004016121c8906147b2565b60405180910390fd5b6121db828261318d565b5050565b60006121f760016010546129dc90919063ffffffff16565b601081905550612209336010546131a9565b6122156010548661318d565b61222160105485612dcb565b85600c60006010548152602001908152602001600020908051906020019061224a9291906137c1565b506122586010548484611d8d565b601054905095945050505050565b6060612271826126f3565b6122b0576040517f08c379a00000000000000000000000000000000000000000000000000000000081526004016122a7906149b2565b60405180910390fd5b60006122ba613383565b905060008151116122da5760405180602001604052806000815250612305565b806122e48461339a565b6040516020016122f5929190614676565b6040516020818303038152906040525b915050919050565b60008061231861186b565b9050600066038d7ea4c680008467ffffffffffffffff166123399190614e84565b905061234e828261354790919063ffffffff16565b92505050919050565b600061239284601160009054906101000a900463ffffffff1663ffffffff16601160049054906101000a900461ffff1661ffff1686866121df565b90509392505050565b600080600167ffffffffffffffff8111156123df577f4e487b7100000000000000000000000000000000000000000000000000000000600052604160045260246000fd5b60405190808252806020026020018201604052801561240d5781602001602082028036833780820191505090505b509050338160008151811061244b577f4e487b7100000000000000000000000000000000000000000000000000000000600052603260045260246000fd5b602002602001019073ffffffffffffffffffffffffffffffffffffffff16908173ffffffffffffffffffffffffffffffffffffffff16815250506000600167ffffffffffffffff8111156124c8577f4e487b7100000000000000000000000000000000000000000000000000000000600052604160045260246000fd5b6040519080825280602002602001820160405280156124f65781602001602082028036833780820191505090505b50905061271081600081518110612536577f4e487b7100000000000000000000000000000000000000000000000000000000600052603260045260246000fd5b602002602001019061ffff16908161ffff1681525050612557848383612357565b92505050919050565b6000600560008473ffffffffffffffffffffffffffffffffffffffff1673ffffffffffffffffffffffffffffffffffffffff16815260200190815260200160002060008373ffffffffffffffffffffffffffffffffffffffff1673ffffffffffffffffffffffffffffffffffffffff16815260200190815260200160002060009054906101000a900460ff16905092915050565b6060600d60003373ffffffffffffffffffffffffffffffffffffffff1673ffffffffffffffffffffffffffffffffffffffff16815260200190815260200160002080548060200260200160405190810160405280929190818152602001828054801561267f57602002820191906000526020600020905b81548152602001906001019080831161266b575b5050505050905090565b60007f01ffc9a7000000000000000000000000000000000000000000000000000000007bffffffffffffffffffffffffffffffffffffffffffffffffffffffff1916827bffffffffffffffffffffffffffffffffffffffffffffffffffffffff1916149050919050565b60008073ffffffffffffffffffffffffffffffffffffffff166002600084815260200190815260200160002060009054906101000a900473ffffffffffffffffffffffffffffffffffffffff1673ffffffffffffffffffffffffffffffffffffffff1614159050919050565b600033905090565b816004600083815260200190815260200160002060006101000a81548173ffffffffffffffffffffffffffffffffffffffff021916908373ffffffffffffffffffffffffffffffffffffffff160217905550808273ffffffffffffffffffffffffffffffffffffffff166127da83611701565b73ffffffffffffffffffffffffffffffffffffffff167f8c5be1e5ebec7d5bd14f71427d1e84f3dd0314c0f7b2291e5b200ac8c7c3b92560405160405180910390a45050565b600080600660008573ffffffffffffffffffffffffffffffffffffffff1673ffffffffffffffffffffffffffffffffffffffff168152602001908152602001600020600084815260200190815260200160002054905061288084846129f2565b8061288a57504281115b91505092915050565b600034111561290f576128cc600a600083815260200190815260200160002060009054906101000a900467ffffffffffffffff1661230d565b34101561290e576040517f08c379a000000000000000000000000000000000000000000000000000000000815260040161290590614872565b60405180910390fd5b5b50565b600080600a905060006129a76127106129998460ff16600860008b815260200190815260200160002060008973ffffffffffffffffffffffffffffffffffffffff1673ffffffffffffffffffffffffffffffffffffffff16815260200190815260200160002060009054906101000a900461ffff1661ffff1661355d90919063ffffffff16565b61354790919063ffffffff16565b90506129d1816129c38460ff168861354790919063ffffffff16565b61355d90919063ffffffff16565b925050509392505050565b600081836129ea9190614c8c565b905092915050565b60006129fd826126f3565b612a3c576040517f08c379a0000000000000000000000000000000000000000000000000000000008152600401612a33906148d2565b60405180910390fd5b6000612a4783611701565b90508073ffffffffffffffffffffffffffffffffffffffff168473ffffffffffffffffffffffffffffffffffffffff161480612a895750612a888185612560565b5b80612ac757508373ffffffffffffffffffffffffffffffffffffffff16612aaf84610ac6565b73ffffffffffffffffffffffffffffffffffffffff16145b91505092915050565b8273ffffffffffffffffffffffffffffffffffffffff16612af082611701565b73ffffffffffffffffffffffffffffffffffffffff1614612b46576040517f08c379a0000000000000000000000000000000000000000000000000000000008152600401612b3d90614832565b60405180910390fd5b600073ffffffffffffffffffffffffffffffffffffffff168273ffffffffffffffffffffffffffffffffffffffff161415612bb6576040517f08c379a0000000000000000000000000000000000000000000000000000000008152600401612bad90614892565b60405180910390fd5b612bc1838383613573565b612bcc600082612767565b6001600360008573ffffffffffffffffffffffffffffffffffffffff1673ffffffffffffffffffffffffffffffffffffffff1681526020019081526020016000206000828254612c1c9190614ede565b925050819055506001600360008473ffffffffffffffffffffffffffffffffffffffff1673ffffffffffffffffffffffffffffffffffffffff1681526020019081526020016000206000828254612c739190614c8c565b92505081905550816002600083815260200190815260200160002060006101000a81548173ffffffffffffffffffffffffffffffffffffffff021916908373ffffffffffffffffffffffffffffffffffffffff160217905550808273ffffffffffffffffffffffffffffffffffffffff168473ffffffffffffffffffffffffffffffffffffffff167fddf252ad1be2c89b69c2b068fc378daa952ba7f163c4a11628f55a4df523b3ef60405160405180910390a4612d32838383613578565b505050565b6000612dc2612710612db46008600088815260200190815260200160002060008673ffffffffffffffffffffffffffffffffffffffff1673ffffffffffffffffffffffffffffffffffffffff16815260200190815260200160002060009054906101000a900461ffff1661ffff168661355d90919063ffffffff16565b61354790919063ffffffff16565b90509392505050565b60648167ffffffffffffffff161015612e19576040517f08c379a0000000000000000000000000000000000000000000000000000000008152600401612e1090614a32565b60405180910390fd5b80600a600084815260200190815260200160002060006101000a81548167ffffffffffffffff021916908367ffffffffffffffff1602179055505050565b8173ffffffffffffffffffffffffffffffffffffffff168373ffffffffffffffffffffffffffffffffffffffff161415612ec6576040517f08c379a0000000000000000000000000000000000000000000000000000000008152600401612ebd906148b2565b60405180910390fd5b80600560008573ffffffffffffffffffffffffffffffffffffffff1673ffffffffffffffffffffffffffffffffffffffff16815260200190815260200160002060008473ffffffffffffffffffffffffffffffffffffffff1673ffffffffffffffffffffffffffffffffffffffff16815260200190815260200160002060006101000a81548160ff0219169083151502179055508173ffffffffffffffffffffffffffffffffffffffff168373ffffffffffffffffffffffffffffffffffffffff167f17307eab39ab6107e8899845ad3d59bd9653f200f220920489ca2b5937696c3183604051612fb7919061475a565b60405180910390a3505050565b6000600b600084815260200190815260200160002060008373ffffffffffffffffffffffffffffffffffffffff1673ffffffffffffffffffffffffffffffffffffffff16815260200190815260200160002054905092915050565b61302a848484612ad0565b6130368484848461357d565b613075576040517f08c379a000000000000000000000000000000000000000000000000000000000815260040161306c90614812565b60405180910390fd5b50505050565b600080600d60008473ffffffffffffffffffffffffffffffffffffffff1673ffffffffffffffffffffffffffffffffffffffff16815260200190815260200160002080548060200260200160405190810160405280929190818152602001828054801561310757602002820191906000526020600020905b8154815260200190600101908083116130f3575b5050505050905060005b815181101561318057818181518110613153577f4e487b7100000000000000000000000000000000000000000000000000000000600052603260045260246000fd5b602002602001015185141561316d57600192505050613187565b8080613178906150ae565b915050613111565b5060009150505b92915050565b8060096000848152602001908152602001600020819055505050565b600073ffffffffffffffffffffffffffffffffffffffff168273ffffffffffffffffffffffffffffffffffffffff161415613219576040517f08c379a000000000000000000000000000000000000000000000000000000000815260040161321090614952565b60405180910390fd5b613222816126f3565b15613262576040517f08c379a000000000000000000000000000000000000000000000000000000000815260040161325990614852565b60405180910390fd5b61326e60008383613573565b6001600360008473ffffffffffffffffffffffffffffffffffffffff1673ffffffffffffffffffffffffffffffffffffffff16815260200190815260200160002060008282546132be9190614c8c565b92505081905550816002600083815260200190815260200160002060006101000a81548173ffffffffffffffffffffffffffffffffffffffff021916908373ffffffffffffffffffffffffffffffffffffffff160217905550808273ffffffffffffffffffffffffffffffffffffffff16600073ffffffffffffffffffffffffffffffffffffffff167fddf252ad1be2c89b69c2b068fc378daa952ba7f163c4a11628f55a4df523b3ef60405160405180910390a461337f60008383613578565b5050565b606060405180602001604052806000815250905090565b606060008214156133e2576040518060400160405280600181526020017f30000000000000000000000000000000000000000000000000000000000000008152509050613542565b600082905060005b600082146134145780806133fd906150ae565b915050600a8261340d9190614ce2565b91506133ea565b60008167ffffffffffffffff811115613456577f4e487b7100000000000000000000000000000000000000000000000000000000600052604160045260246000fd5b6040519080825280601f01601f1916602001820160405280156134885781602001600182028036833780820191505090505b5090505b6000851461353b576001826134a19190614ede565b9150600a856134b09190615121565b60306134bc9190614c8c565b60f81b8183815181106134f8577f4e487b7100000000000000000000000000000000000000000000000000000000600052603260045260246000fd5b60200101907effffffffffffffffffffffffffffffffffffffffffffffffffffffffffffff1916908160001a905350600a856135349190614ce2565b945061348c565b8093505050505b919050565b600081836135559190614ce2565b905092915050565b6000818361356b9190614e84565b905092915050565b505050565b505050565b600061359e8473ffffffffffffffffffffffffffffffffffffffff16613714565b15613707578373ffffffffffffffffffffffffffffffffffffffff1663150b7a026135c761275f565b8786866040518563ffffffff1660e01b81526004016135e994939291906146ec565b602060405180830381600087803b15801561360357600080fd5b505af192505050801561363457506040513d601f19601f820116820180604052508101906136319190613da4565b60015b6136b7573d8060008114613664576040519150601f19603f3d011682016040523d82523d6000602084013e613669565b606091505b506000815114156136af576040517f08c379a00000000000000000000000000000000000000000000000000000000081526004016136a690614812565b60405180910390fd5b805181602001fd5b63150b7a0260e01b7bffffffffffffffffffffffffffffffffffffffffffffffffffffffff1916817bffffffffffffffffffffffffffffffffffffffffffffffffffffffff19161491505061370c565b600190505b949350505050565b6000808273ffffffffffffffffffffffffffffffffffffffff163b119050919050565b8280548282559060005260206000209081019282156137b0579160200282015b828111156137af5782518260006101000a81548173ffffffffffffffffffffffffffffffffffffffff021916908373ffffffffffffffffffffffffffffffffffffffff16021790555091602001919060010190613757565b5b5090506137bd9190613847565b5090565b8280546137cd9061504b565b90600052602060002090601f0160209004810192826137ef5760008555613836565b82601f1061380857805160ff1916838001178555613836565b82800160010185558215613836579182015b8281111561383557825182559160200191906001019061381a565b5b5090506138439190613847565b5090565b5b80821115613860576000816000905550600101613848565b5090565b600061387761387284614b56565b614b31565b9050808382526020820190508285602086028201111561389657600080fd5b60005b858110156138c657816138ac88826139b8565b845260208401935060208301925050600181019050613899565b5050509392505050565b60006138e36138de84614b82565b614b31565b9050808382526020820190508285602086028201111561390257600080fd5b60005b8581101561393257816139188882613ade565b845260208401935060208301925050600181019050613905565b5050509392505050565b600061394f61394a84614bae565b614b31565b90508281526020810184848401111561396757600080fd5b613972848285615009565b509392505050565b600061398d61398884614bdf565b614b31565b9050828152602081018484840111156139a557600080fd5b6139b0848285615009565b509392505050565b6000813590506139c781615841565b92915050565b600082601f8301126139de57600080fd5b81356139ee848260208601613864565b91505092915050565b600082601f830112613a0857600080fd5b8135613a188482602086016138d0565b91505092915050565b600081359050613a3081615858565b92915050565b600081519050613a4581615858565b92915050565b600081359050613a5a8161586f565b92915050565b600081519050613a6f8161586f565b92915050565b600082601f830112613a8657600080fd5b8135613a9684826020860161393c565b91505092915050565b600081519050613aae81615886565b92915050565b600082601f830112613ac557600080fd5b8135613ad584826020860161397a565b91505092915050565b600081359050613aed8161589d565b92915050565b600081359050613b02816158b4565b92915050565b600081519050613b17816158b4565b92915050565b600081359050613b2c816158cb565b92915050565b600081519050613b41816158f9565b92915050565b600081519050613b56816158e2565b92915050565b600060208284031215613b6e57600080fd5b6000613b7c848285016139b8565b91505092915050565b60008060408385031215613b9857600080fd5b6000613ba6858286016139b8565b9250506020613bb7858286016139b8565b9150509250929050565b600080600060608486031215613bd657600080fd5b6000613be4868287016139b8565b9350506020613bf5868287016139b8565b9250506040613c0686828701613af3565b9150509250925092565b60008060008060808587031215613c2657600080fd5b6000613c34878288016139b8565b9450506020613c45878288016139b8565b9350506040613c5687828801613af3565b925050606085013567ffffffffffffffff811115613c7357600080fd5b613c7f87828801613a75565b91505092959194509250565b60008060408385031215613c9e57600080fd5b6000613cac858286016139b8565b9250506020613cbd85828601613a21565b9150509250929050565b60008060408385031215613cda57600080fd5b6000613ce8858286016139b8565b9250506020613cf985828601613af3565b9150509250929050565b600080600060608486031215613d1857600080fd5b6000613d26868287016139b8565b9350506020613d3786828701613af3565b9250506040613d48868287016139b8565b9150509250925092565b600060208284031215613d6457600080fd5b6000613d7284828501613a36565b91505092915050565b600060208284031215613d8d57600080fd5b6000613d9b84828501613a4b565b91505092915050565b600060208284031215613db657600080fd5b6000613dc484828501613a60565b91505092915050565b600060208284031215613ddf57600080fd5b600082013567ffffffffffffffff811115613df957600080fd5b613e0584828501613ab4565b91505092915050565b600080600060608486031215613e2357600080fd5b600084013567ffffffffffffffff811115613e3d57600080fd5b613e4986828701613ab4565b935050602084013567ffffffffffffffff811115613e6657600080fd5b613e72868287016139cd565b925050604084013567ffffffffffffffff811115613e8f57600080fd5b613e9b868287016139f7565b9150509250925092565b600080600080600060a08688031215613ebd57600080fd5b600086013567ffffffffffffffff811115613ed757600080fd5b613ee388828901613ab4565b9550506020613ef488828901613af3565b9450506040613f0588828901613b1d565b935050606086013567ffffffffffffffff811115613f2257600080fd5b613f2e888289016139cd565b925050608086013567ffffffffffffffff811115613f4b57600080fd5b613f57888289016139f7565b9150509295509295909350565b600060208284031215613f7657600080fd5b6000613f8484828501613af3565b91505092915050565b60008060408385031215613fa057600080fd5b6000613fae85828601613af3565b9250506020613fbf858286016139b8565b9150509250929050565b600080600060608486031215613fde57600080fd5b6000613fec86828701613af3565b935050602084013567ffffffffffffffff81111561400957600080fd5b614015868287016139cd565b925050604084013567ffffffffffffffff81111561403257600080fd5b61403e868287016139f7565b9150509250925092565b6000806040838503121561405b57600080fd5b600061406985828601613af3565b925050602061407a85828601613ade565b9150509250929050565b6000806040838503121561409757600080fd5b60006140a585828601613af3565b92505060206140b685828601613af3565b9150509250929050565b6000602082840312156140d257600080fd5b60006140e084828501613b1d565b91505092915050565b600080600080600060a0868803121561410157600080fd5b600061410f88828901613b32565b955050602061412088828901613a9f565b945050604061413188828901613b08565b935050606061414288828901613b08565b925050608061415388828901613b32565b9150509295509295909350565b60006020828403121561417257600080fd5b600061418084828501613b47565b91505092915050565b60006141958383614649565b60208301905092915050565b6141aa81614f46565b82525050565b60006141bb82614c20565b6141c58185614c4e565b93506141d083614c10565b8060005b838110156142015781516141e88882614189565b97506141f383614c41565b9250506001810190506141d4565b5085935050505092915050565b61421781614f58565b82525050565b600061422882614c2b565b6142328185614c5f565b9350614242818560208601615018565b61424b8161520e565b840191505092915050565b61425f81614f90565b82525050565b600061427082614c36565b61427a8185614c70565b935061428a818560208601615018565b6142938161520e565b840191505092915050565b60006142a982614c36565b6142b38185614c81565b93506142c3818560208601615018565b80840191505092915050565b60006142dc601583614c70565b91506142e78261522c565b602082019050919050565b60006142ff600d83614c70565b915061430a82615255565b602082019050919050565b6000614322601283614c70565b915061432d8261527e565b602082019050919050565b6000614345603283614c70565b9150614350826152a7565b604082019050919050565b6000614368602583614c70565b9150614373826152f6565b604082019050919050565b600061438b601c83614c70565b915061439682615345565b602082019050919050565b60006143ae601283614c70565b91506143b98261536e565b602082019050919050565b60006143d1602483614c70565b91506143dc82615397565b604082019050919050565b60006143f4601983614c70565b91506143ff826153e6565b602082019050919050565b6000614417602c83614c70565b91506144228261540f565b604082019050919050565b600061443a603883614c70565b91506144458261545e565b604082019050919050565b600061445d602a83614c70565b9150614468826154ad565b604082019050919050565b6000614480602983614c70565b915061448b826154fc565b604082019050919050565b60006144a3602083614c70565b91506144ae8261554b565b602082019050919050565b60006144c6602c83614c70565b91506144d182615574565b604082019050919050565b60006144e9600c83614c70565b91506144f4826155c3565b602082019050919050565b600061450c602f83614c70565b9150614517826155ec565b604082019050919050565b600061452f602183614c70565b915061453a8261563b565b604082019050919050565b6000614552601683614c70565b915061455d8261568a565b602082019050919050565b6000614575603183614c70565b9150614580826156b3565b604082019050919050565b6000614598602b83614c70565b91506145a382615702565b604082019050919050565b60006145bb602e83614c70565b91506145c682615751565b604082019050919050565b60006145de601083614c70565b91506145e9826157a0565b602082019050919050565b6000614601602183614c70565b915061460c826157c9565b604082019050919050565b6000614624601483614c70565b915061462f82615818565b602082019050919050565b61464381614f9a565b82525050565b61465281614fc8565b82525050565b61466181614fc8565b82525050565b61467081614fd2565b82525050565b6000614682828561429e565b915061468e828461429e565b91508190509392505050565b60006020820190506146af60008301846141a1565b92915050565b60006060820190506146ca60008301866141a1565b6146d760208301856141a1565b6146e46040830184614658565b949350505050565b600060808201905061470160008301876141a1565b61470e60208301866141a1565b61471b6040830185614658565b818103606083015261472d818461421d565b905095945050505050565b6000602082019050818103600083015261475281846141b0565b905092915050565b600060208201905061476f600083018461420e565b92915050565b600060208201905061478a6000830184614256565b92915050565b600060208201905081810360008301526147aa8184614265565b905092915050565b600060208201905081810360008301526147cb816142cf565b9050919050565b600060208201905081810360008301526147eb816142f2565b9050919050565b6000602082019050818103600083015261480b81614315565b9050919050565b6000602082019050818103600083015261482b81614338565b9050919050565b6000602082019050818103600083015261484b8161435b565b9050919050565b6000602082019050818103600083015261486b8161437e565b9050919050565b6000602082019050818103600083015261488b816143a1565b9050919050565b600060208201905081810360008301526148ab816143c4565b9050919050565b600060208201905081810360008301526148cb816143e7565b9050919050565b600060208201905081810360008301526148eb8161440a565b9050919050565b6000602082019050818103600083015261490b8161442d565b9050919050565b6000602082019050818103600083015261492b81614450565b9050919050565b6000602082019050818103600083015261494b81614473565b9050919050565b6000602082019050818103600083015261496b81614496565b9050919050565b6000602082019050818103600083015261498b816144b9565b9050919050565b600060208201905081810360008301526149ab816144dc565b9050919050565b600060208201905081810360008301526149cb816144ff565b9050919050565b600060208201905081810360008301526149eb81614522565b9050919050565b60006020820190508181036000830152614a0b81614545565b9050919050565b60006020820190508181036000830152614a2b81614568565b9050919050565b60006020820190508181036000830152614a4b8161458b565b9050919050565b60006020820190508181036000830152614a6b816145ae565b9050919050565b60006020820190508181036000830152614a8b816145d1565b9050919050565b60006020820190508181036000830152614aab816145f4565b9050919050565b60006020820190508181036000830152614acb81614617565b9050919050565b6000602082019050614ae7600083018461463a565b92915050565b6000602082019050614b026000830184614658565b92915050565b6000604082019050614b1d6000830185614658565b614b2a6020830184614667565b9392505050565b6000614b3b614b4c565b9050614b47828261507d565b919050565b6000604051905090565b600067ffffffffffffffff821115614b7157614b706151df565b5b602082029050602081019050919050565b600067ffffffffffffffff821115614b9d57614b9c6151df565b5b602082029050602081019050919050565b600067ffffffffffffffff821115614bc957614bc86151df565b5b614bd28261520e565b9050602081019050919050565b600067ffffffffffffffff821115614bfa57614bf96151df565b5b614c038261520e565b9050602081019050919050565b6000819050602082019050919050565b600081519050919050565b600081519050919050565b600081519050919050565b6000602082019050919050565b600082825260208201905092915050565b600082825260208201905092915050565b600082825260208201905092915050565b600081905092915050565b6000614c9782614fc8565b9150614ca283614fc8565b9250827fffffffffffffffffffffffffffffffffffffffffffffffffffffffffffffffff03821115614cd757614cd6615152565b5b828201905092915050565b6000614ced82614fc8565b9150614cf883614fc8565b925082614d0857614d07615181565b5b828204905092915050565b6000808291508390505b6001851115614d5d57808604811115614d3957614d38615152565b5b6001851615614d485780820291505b8081029050614d568561521f565b9450614d1d565b94509492505050565b6000614d7182614fc8565b9150614d7c83614fe6565b9250614da97fffffffffffffffffffffffffffffffffffffffffffffffffffffffffffffffff8484614db1565b905092915050565b600082614dc15760019050614e7d565b81614dcf5760009050614e7d565b8160018114614de55760028114614def57614e1e565b6001915050614e7d565b60ff841115614e0157614e00615152565b5b8360020a915084821115614e1857614e17615152565b5b50614e7d565b5060208310610133831016604e8410600b8410161715614e535782820a905083811115614e4e57614e4d615152565b5b614e7d565b614e608484846001614d13565b92509050818404811115614e7757614e76615152565b5b81810290505b9392505050565b6000614e8f82614fc8565b9150614e9a83614fc8565b9250817fffffffffffffffffffffffffffffffffffffffffffffffffffffffffffffffff0483118215151615614ed357614ed2615152565b5b828202905092915050565b6000614ee982614fc8565b9150614ef483614fc8565b925082821015614f0757614f06615152565b5b828203905092915050565b6000614f1d82614fe6565b9150614f2883614fe6565b925082821015614f3b57614f3a615152565b5b828203905092915050565b6000614f5182614fa8565b9050919050565b60008115159050919050565b60007fffffffff0000000000000000000000000000000000000000000000000000000082169050919050565b6000819050919050565b600061ffff82169050919050565b600073ffffffffffffffffffffffffffffffffffffffff82169050919050565b6000819050919050565b600067ffffffffffffffff82169050919050565b600060ff82169050919050565b600069ffffffffffffffffffff82169050919050565b82818337600083830152505050565b60005b8381101561503657808201518184015260208101905061501b565b83811115615045576000848401525b50505050565b6000600282049050600182168061506357607f821691505b60208210811415615077576150766151b0565b5b50919050565b6150868261520e565b810181811067ffffffffffffffff821117156150a5576150a46151df565b5b80604052505050565b60006150b982614fc8565b91507fffffffffffffffffffffffffffffffffffffffffffffffffffffffffffffffff8214156150ec576150eb615152565b5b600182019050919050565b600061510282614fe6565b915060ff82141561511657615115615152565b5b600182019050919050565b600061512c82614fc8565b915061513783614fc8565b92508261514757615146615181565b5b828206905092915050565b7f4e487b7100000000000000000000000000000000000000000000000000000000600052601160045260246000fd5b7f4e487b7100000000000000000000000000000000000000000000000000000000600052601260045260246000fd5b7f4e487b7100000000000000000000000000000000000000000000000000000000600052602260045260246000fd5b7f4e487b7100000000000000000000000000000000000000000000000000000000600052604160045260246000fd5b6000601f19601f8301169050919050565b60008160011c9050919050565b7f6e6f7420617070726f766564206f72206f776e65720000000000000000000000600082015250565b7f6e6f2073656e642076616c756500000000000000000000000000000000000000600082015250565b7f5f696420646f6573206e6f742065786973740000000000000000000000000000600082015250565b7f4552433732313a207472616e7366657220746f206e6f6e20455243373231526560008201527f63656976657220696d706c656d656e7465720000000000000000000000000000602082015250565b7f4552433732313a207472616e736665722066726f6d20696e636f72726563742060008201527f6f776e6572000000000000000000000000000000000000000000000000000000602082015250565b7f4552433732313a20746f6b656e20616c7265616479206d696e74656400000000600082015250565b7f696e73756666696369656e742076616c75650000000000000000000000000000600082015250565b7f4552433732313a207472616e7366657220746f20746865207a65726f2061646460008201527f7265737300000000000000000000000000000000000000000000000000000000602082015250565b7f4552433732313a20617070726f766520746f2063616c6c657200000000000000600082015250565b7f4552433732313a206f70657261746f7220717565727920666f72206e6f6e657860008201527f697374656e7420746f6b656e0000000000000000000000000000000000000000602082015250565b7f4552433732313a20617070726f76652063616c6c6572206973206e6f74206f7760008201527f6e6572206e6f7220617070726f76656420666f7220616c6c0000000000000000602082015250565b7f4552433732313a2062616c616e636520717565727920666f7220746865207a6560008201527f726f206164647265737300000000000000000000000000000000000000000000602082015250565b7f4552433732313a206f776e657220717565727920666f72206e6f6e657869737460008201527f656e7420746f6b656e0000000000000000000000000000000000000000000000602082015250565b7f4552433732313a206d696e7420746f20746865207a65726f2061646472657373600082015250565b7f4552433732313a20617070726f76656420717565727920666f72206e6f6e657860008201527f697374656e7420746f6b656e0000000000000000000000000000000000000000602082015250565b7f63616e206e6f7420766965770000000000000000000000000000000000000000600082015250565b7f4552433732314d657461646174613a2055524920717565727920666f72206e6f60008201527f6e6578697374656e7420746f6b656e0000000000000000000000000000000000602082015250565b7f4552433732313a20617070726f76616c20746f2063757272656e74206f776e6560008201527f7200000000000000000000000000000000000000000000000000000000000000602082015250565b7f6f6e6c79206465706c6f7965722063616e20696e697400000000000000000000600082015250565b7f4552433732313a207472616e736665722063616c6c6572206973206e6f74206f60008201527f776e6572206e6f7220617070726f766564000000000000000000000000000000602082015250565b7f616d6f756e74206d7573742062652067726561746572207468616e203130302060008201527f5553442070656e6e696573000000000000000000000000000000000000000000602082015250565b7f726563697069656e747320616e6420616c6c6f636174696f6e7320617265206e60008201527f6f742073616d65206c656e677468000000000000000000000000000000000000602082015250565b7f6661696c656420746f2072656465656d00000000000000000000000000000000600082015250565b7f616c6c6f636174696f6e7320646f206e6f742061646420757020746f2031303060008201527f2500000000000000000000000000000000000000000000000000000000000000602082015250565b7f746f6b656e20646f6573206e6f74206578697374000000000000000000000000600082015250565b61584a81614f46565b811461585557600080fd5b50565b61586181614f58565b811461586c57600080fd5b50565b61587881614f64565b811461588357600080fd5b50565b61588f81614f90565b811461589a57600080fd5b50565b6158a681614f9a565b81146158b157600080fd5b50565b6158bd81614fc8565b81146158c857600080fd5b50565b6158d481614fd2565b81146158df57600080fd5b50565b6158eb81614fe6565b81146158f657600080fd5b50565b61590281614ff3565b811461590d57600080fd5b5056fea2646970667358221220efba34ca3e299e221451459b42e680f5c35a51fb50fee546917b5acd1c3e214064736f6c63430008040033",
  "linkReferences": {},
  "deployedLinkReferences": {}
}