{
  "_format": "hh-sol-artifact-1",
  "contractName": "PayPerView",
  "sourceName": "src/backend/contracts/PayPerView.sol",
  "abi": [
    {
      "inputs": [
        {
          "internalType": "string",
          "name": "name",
          "type": "string"
        },
        {
          "internalType": "string",
          "name": "symbol",
          "type": "string"
        }
      ],
      "stateMutability": "nonpayable",
      "type": "constructor"
    },
    {
      "anonymous": false,
      "inputs": [
        {
          "indexed": true,
          "internalType": "address",
          "name": "owner",
          "type": "address"
        },
        {
          "indexed": true,
          "internalType": "address",
          "name": "approved",
          "type": "address"
        },
        {
          "indexed": true,
          "internalType": "uint256",
          "name": "tokenId",
          "type": "uint256"
        }
      ],
      "name": "Approval",
      "type": "event"
    },
    {
      "anonymous": false,
      "inputs": [
        {
          "indexed": true,
          "internalType": "address",
          "name": "owner",
          "type": "address"
        },
        {
          "indexed": true,
          "internalType": "address",
          "name": "operator",
          "type": "address"
        },
        {
          "indexed": false,
          "internalType": "bool",
          "name": "approved",
          "type": "bool"
        }
      ],
      "name": "ApprovalForAll",
      "type": "event"
    },
    {
      "anonymous": false,
      "inputs": [
        {
          "indexed": true,
          "internalType": "address",
          "name": "from",
          "type": "address"
        },
        {
          "indexed": true,
          "internalType": "address",
          "name": "to",
          "type": "address"
        },
        {
          "indexed": true,
          "internalType": "uint256",
          "name": "tokenId",
          "type": "uint256"
        }
      ],
      "name": "Transfer",
      "type": "event"
    },
    {
      "inputs": [
        {
          "internalType": "address",
          "name": "viewer",
          "type": "address"
        },
        {
          "internalType": "uint256",
          "name": "_id",
          "type": "uint256"
        }
      ],
      "name": "addViewer",
      "outputs": [],
      "stateMutability": "payable",
      "type": "function"
    },
    {
      "inputs": [
        {
          "internalType": "uint256",
          "name": "",
          "type": "uint256"
        },
        {
          "internalType": "address",
          "name": "",
          "type": "address"
        }
      ],
      "name": "allocationOfRoyalties",
      "outputs": [
        {
          "internalType": "uint16",
          "name": "",
          "type": "uint16"
        }
      ],
      "stateMutability": "view",
      "type": "function"
    },
    {
      "inputs": [
        {
          "internalType": "address",
          "name": "to",
          "type": "address"
        },
        {
          "internalType": "uint256",
          "name": "tokenId",
          "type": "uint256"
        }
      ],
      "name": "approve",
      "outputs": [],
      "stateMutability": "nonpayable",
      "type": "function"
    },
    {
      "inputs": [
        {
          "internalType": "address",
          "name": "owner",
          "type": "address"
        }
      ],
      "name": "balanceOf",
      "outputs": [
        {
          "internalType": "uint256",
          "name": "",
          "type": "uint256"
        }
      ],
      "stateMutability": "view",
      "type": "function"
    },
    {
      "inputs": [
        {
          "internalType": "address",
          "name": "viewer",
          "type": "address"
        },
        {
          "internalType": "uint256",
          "name": "_id",
          "type": "uint256"
        }
      ],
      "name": "canView",
      "outputs": [
        {
          "internalType": "bool",
          "name": "",
          "type": "bool"
        }
      ],
      "stateMutability": "view",
      "type": "function"
    },
    {
      "inputs": [
        {
          "internalType": "uint256",
          "name": "tokenId",
          "type": "uint256"
        }
      ],
      "name": "getApproved",
      "outputs": [
        {
          "internalType": "address",
          "name": "",
          "type": "address"
        }
      ],
      "stateMutability": "view",
      "type": "function"
    },
    {
      "inputs": [],
      "name": "getLatestPrice",
      "outputs": [
        {
          "internalType": "int256",
          "name": "",
          "type": "int256"
        }
      ],
      "stateMutability": "view",
      "type": "function"
    },
    {
      "inputs": [],
      "name": "getTokenIdsAddressCanRedeemFrom",
      "outputs": [
        {
          "internalType": "uint256[]",
          "name": "",
          "type": "uint256[]"
        }
      ],
      "stateMutability": "view",
      "type": "function"
    },
    {
      "inputs": [
        {
          "internalType": "uint256",
          "name": "_id",
          "type": "uint256"
        }
      ],
      "name": "getTokenURI",
      "outputs": [
        {
          "internalType": "string",
          "name": "",
          "type": "string"
        }
      ],
      "stateMutability": "view",
      "type": "function"
    },
    {
      "inputs": [
        {
          "internalType": "address",
          "name": "_priceFeed",
          "type": "address"
        }
      ],
      "name": "init",
      "outputs": [],
      "stateMutability": "nonpayable",
      "type": "function"
    },
    {
      "inputs": [
        {
          "internalType": "address",
          "name": "owner",
          "type": "address"
        },
        {
          "internalType": "address",
          "name": "operator",
          "type": "address"
        }
      ],
      "name": "isApprovedForAll",
      "outputs": [
        {
          "internalType": "bool",
          "name": "",
          "type": "bool"
        }
      ],
      "stateMutability": "view",
      "type": "function"
    },
    {
      "inputs": [
        {
          "internalType": "string",
          "name": "_tokenURI",
          "type": "string"
        }
      ],
      "name": "mint",
      "outputs": [
        {
          "internalType": "uint256",
          "name": "",
          "type": "uint256"
        }
      ],
      "stateMutability": "nonpayable",
      "type": "function"
    },
    {
      "inputs": [
        {
          "internalType": "string",
          "name": "_tokenURI",
          "type": "string"
        },
        {
          "internalType": "uint256",
          "name": "_duration",
          "type": "uint256"
        },
        {
          "internalType": "uint64",
          "name": "_amount",
          "type": "uint64"
        },
        {
          "internalType": "address[]",
          "name": "_recipients",
          "type": "address[]"
        },
        {
          "internalType": "uint16[]",
          "name": "_allocationPercentages",
          "type": "uint16[]"
        }
      ],
      "name": "mintWithCustomParams",
      "outputs": [
        {
          "internalType": "uint256",
          "name": "",
          "type": "uint256"
        }
      ],
      "stateMutability": "nonpayable",
      "type": "function"
    },
    {
      "inputs": [
        {
          "internalType": "string",
          "name": "_tokenURI",
          "type": "string"
        },
        {
          "internalType": "address[]",
          "name": "_recipients",
          "type": "address[]"
        },
        {
          "internalType": "uint16[]",
          "name": "_allocationPercentages",
          "type": "uint16[]"
        }
      ],
      "name": "mintWithDefaultParams",
      "outputs": [
        {
          "internalType": "uint256",
          "name": "",
          "type": "uint256"
        }
      ],
      "stateMutability": "nonpayable",
      "type": "function"
    },
    {
      "inputs": [],
      "name": "name",
      "outputs": [
        {
          "internalType": "string",
          "name": "",
          "type": "string"
        }
      ],
      "stateMutability": "view",
      "type": "function"
    },
    {
      "inputs": [
        {
          "internalType": "uint256",
          "name": "tokenId",
          "type": "uint256"
        }
      ],
      "name": "ownerOf",
      "outputs": [
        {
          "internalType": "address",
          "name": "",
          "type": "address"
        }
      ],
      "stateMutability": "view",
      "type": "function"
    },
    {
      "inputs": [
        {
          "internalType": "uint256",
          "name": "_id",
          "type": "uint256"
        }
      ],
      "name": "redeemRoyalty",
      "outputs": [],
      "stateMutability": "nonpayable",
      "type": "function"
    },
    {
      "inputs": [
        {
          "internalType": "uint256",
          "name": "_id",
          "type": "uint256"
        }
      ],
      "name": "redeemableRoyaltyPerToken",
      "outputs": [
        {
          "internalType": "uint256",
          "name": "",
          "type": "uint256"
        }
      ],
      "stateMutability": "view",
      "type": "function"
    },
    {
      "inputs": [
        {
          "internalType": "uint256",
          "name": "",
          "type": "uint256"
        },
        {
          "internalType": "uint256",
          "name": "",
          "type": "uint256"
        }
      ],
      "name": "royaltyRecipientsByToken",
      "outputs": [
        {
          "internalType": "address",
          "name": "",
          "type": "address"
        }
      ],
      "stateMutability": "view",
      "type": "function"
    },
    {
      "inputs": [
        {
          "internalType": "address",
          "name": "from",
          "type": "address"
        },
        {
          "internalType": "address",
          "name": "to",
          "type": "address"
        },
        {
          "internalType": "uint256",
          "name": "tokenId",
          "type": "uint256"
        }
      ],
      "name": "safeTransferFrom",
      "outputs": [],
      "stateMutability": "nonpayable",
      "type": "function"
    },
    {
      "inputs": [
        {
          "internalType": "address",
          "name": "from",
          "type": "address"
        },
        {
          "internalType": "address",
          "name": "to",
          "type": "address"
        },
        {
          "internalType": "uint256",
          "name": "tokenId",
          "type": "uint256"
        },
        {
          "internalType": "bytes",
          "name": "_data",
          "type": "bytes"
        }
      ],
      "name": "safeTransferFrom",
      "outputs": [],
      "stateMutability": "nonpayable",
      "type": "function"
    },
    {
      "inputs": [
        {
          "internalType": "uint256",
          "name": "_id",
          "type": "uint256"
        },
        {
          "internalType": "uint16",
          "name": "_amount",
          "type": "uint16"
        }
      ],
      "name": "setAmountToView",
      "outputs": [],
      "stateMutability": "nonpayable",
      "type": "function"
    },
    {
      "inputs": [
        {
          "internalType": "address",
          "name": "operator",
          "type": "address"
        },
        {
          "internalType": "bool",
          "name": "approved",
          "type": "bool"
        }
      ],
      "name": "setApprovalForAll",
      "outputs": [],
      "stateMutability": "nonpayable",
      "type": "function"
    },
    {
      "inputs": [
        {
          "internalType": "uint256",
          "name": "_id",
          "type": "uint256"
        },
        {
          "internalType": "address[]",
          "name": "_recipients",
          "type": "address[]"
        },
        {
          "internalType": "uint16[]",
          "name": "_allocationPercentages",
          "type": "uint16[]"
        }
      ],
      "name": "setRoyaltyRecipients",
      "outputs": [],
      "stateMutability": "nonpayable",
      "type": "function"
    },
    {
      "inputs": [
        {
          "internalType": "uint256",
          "name": "_id",
          "type": "uint256"
        },
        {
          "internalType": "uint256",
          "name": "_duration",
          "type": "uint256"
        }
      ],
      "name": "setViewDuration",
      "outputs": [],
      "stateMutability": "nonpayable",
      "type": "function"
    },
    {
      "inputs": [
        {
          "internalType": "bytes4",
          "name": "interfaceId",
          "type": "bytes4"
        }
      ],
      "name": "supportsInterface",
      "outputs": [
        {
          "internalType": "bool",
          "name": "",
          "type": "bool"
        }
      ],
      "stateMutability": "view",
      "type": "function"
    },
    {
      "inputs": [],
      "name": "symbol",
      "outputs": [
        {
          "internalType": "string",
          "name": "",
          "type": "string"
        }
      ],
      "stateMutability": "view",
      "type": "function"
    },
    {
      "inputs": [],
      "name": "tokenCount",
      "outputs": [
        {
          "internalType": "uint256",
          "name": "",
          "type": "uint256"
        }
      ],
      "stateMutability": "view",
      "type": "function"
    },
    {
      "inputs": [
        {
          "internalType": "uint256",
          "name": "tokenId",
          "type": "uint256"
        }
      ],
      "name": "tokenURI",
      "outputs": [
        {
          "internalType": "string",
          "name": "",
          "type": "string"
        }
      ],
      "stateMutability": "view",
      "type": "function"
    },
    {
      "inputs": [
        {
          "internalType": "uint256",
          "name": "_id",
          "type": "uint256"
        }
      ],
      "name": "totalRoyaltyCollected",
      "outputs": [
        {
          "internalType": "uint256",
          "name": "",
          "type": "uint256"
        }
      ],
      "stateMutability": "view",
      "type": "function"
    },
    {
      "inputs": [
        {
          "internalType": "address",
          "name": "from",
          "type": "address"
        },
        {
          "internalType": "address",
          "name": "to",
          "type": "address"
        },
        {
          "internalType": "uint256",
          "name": "tokenId",
          "type": "uint256"
        }
      ],
      "name": "transferFrom",
      "outputs": [],
      "stateMutability": "nonpayable",
      "type": "function"
    },
    {
      "inputs": [
        {
          "internalType": "address",
          "name": "",
          "type": "address"
        },
        {
          "internalType": "uint256",
          "name": "",
          "type": "uint256"
        }
      ],
      "name": "viewExpiration",
      "outputs": [
        {
          "internalType": "uint256",
          "name": "",
          "type": "uint256"
        }
      ],
      "stateMutability": "view",
      "type": "function"
    },
    {
      "inputs": [
        {
          "internalType": "uint256",
          "name": "_id",
          "type": "uint256"
        }
      ],
      "name": "viewTokenConcealedURI",
      "outputs": [
        {
          "internalType": "string",
          "name": "",
          "type": "string"
        }
      ],
      "stateMutability": "view",
      "type": "function"
    },
    {
      "inputs": [
        {
          "internalType": "uint256",
          "name": "_id",
          "type": "uint256"
        }
      ],
      "name": "viewingDetailsFor",
      "outputs": [
        {
          "internalType": "uint256",
          "name": "viewDuration",
          "type": "uint256"
        },
        {
          "internalType": "uint64",
          "name": "amountToView",
          "type": "uint64"
        }
      ],
      "stateMutability": "view",
      "type": "function"
    }
  ],
  "bytecode": "0x608060405260006010553480156200001657600080fd5b506040516200559a3803806200559a83398181016040528101906200003c919062000220565b8181816000908051906020019062000056929190620000fe565b5080600190805190602001906200006f929190620000fe565b50505033600f60006101000a81548173ffffffffffffffffffffffffffffffffffffffff021916908373ffffffffffffffffffffffffffffffffffffffff1602179055506101f4601160046101000a81548161ffff021916908361ffff16021790555062093a80601160006101000a81548163ffffffff021916908363ffffffff160217905550505062000403565b8280546200010c9062000328565b90600052602060002090601f0160209004810192826200013057600085556200017c565b82601f106200014b57805160ff19168380011785556200017c565b828001600101855582156200017c579182015b828111156200017b5782518255916020019190600101906200015e565b5b5090506200018b91906200018f565b5090565b5b80821115620001aa57600081600090555060010162000190565b5090565b6000620001c5620001bf84620002bc565b62000293565b905082815260208101848484011115620001de57600080fd5b620001eb848285620002f2565b509392505050565b600082601f8301126200020557600080fd5b815162000217848260208601620001ae565b91505092915050565b600080604083850312156200023457600080fd5b600083015167ffffffffffffffff8111156200024f57600080fd5b6200025d85828601620001f3565b925050602083015167ffffffffffffffff8111156200027b57600080fd5b6200028985828601620001f3565b9150509250929050565b60006200029f620002b2565b9050620002ad82826200035e565b919050565b6000604051905090565b600067ffffffffffffffff821115620002da57620002d9620003c3565b5b620002e582620003f2565b9050602081019050919050565b60005b8381101562000312578082015181840152602081019050620002f5565b8381111562000322576000848401525b50505050565b600060028204905060018216806200034157607f821691505b6020821081141562000358576200035762000394565b5b50919050565b6200036982620003f2565b810181811067ffffffffffffffff821117156200038b576200038a620003c3565b5b80604052505050565b7f4e487b7100000000000000000000000000000000000000000000000000000000600052602260045260246000fd5b7f4e487b7100000000000000000000000000000000000000000000000000000000600052604160045260246000fd5b6000601f19601f8301169050919050565b61518780620004136000396000f3fe6080604052600436106101f95760003560e01c80638ffc093c1161010d578063b88d4fde116100a0578063c87b56dd1161006f578063c87b56dd146107b7578063d2aad861146107f4578063d85d3d2714610831578063e985e9c51461086e578063f54f52ed146108ab576101f9565b8063b88d4fde146106ff578063bec41f7314610728578063c2496bec14610751578063c26125471461077a576101f9565b8063a03a1ded116100dc578063a03a1ded1461061f578063a22cb4651461065c578063a336380c14610685578063ab2c9abe146106c2576101f9565b80638ffc093c1461056357806395d89b411461058c5780639f181b5e146105b75780639f8aa4c4146105e2576101f9565b806323b872dd1161019057806342842e0e1161015f57806342842e0e146104575780634cd5adbb146104805780636352211e146104be57806370a08231146104fb5780638e15f47314610538576101f9565b806323b872dd146103775780632b6355e8146103a05780633bb3a24d146103dd5780633f4dd3ab1461041a576101f9565b80630b15c9dc116101cc5780630b15c9dc146102cc57806319ab453c146103095780631b1d639d146103325780631fb3aaf91461034e576101f9565b806301ffc9a7146101fe57806306fdde031461023b578063081812fc14610266578063095ea7b3146102a3575b600080fd5b34801561020a57600080fd5b506102256004803603810190610220919061380e565b6108d6565b6040516102329190614164565b60405180910390f35b34801561024757600080fd5b506102506109b8565b60405161025d919061419a565b60405180910390f35b34801561027257600080fd5b5061028d600480360381019061028891906139f7565b610a4a565b60405161029a91906140db565b60405180910390f35b3480156102af57600080fd5b506102ca60048036038101906102c591906137d2565b610acf565b005b3480156102d857600080fd5b506102f360048036038101906102ee91906137d2565b610be7565b6040516103009190614164565b60405180910390f35b34801561031557600080fd5b50610330600480360381019061032b9190613667565b610c43565b005b61034c600480360381019061034791906137d2565b610d17565b005b34801561035a57600080fd5b50610375600480360381019061037091906139f7565b610f5d565b005b34801561038357600080fd5b5061039e600480360381019061039991906136cc565b611112565b005b3480156103ac57600080fd5b506103c760048036038101906103c29190613a20565b611172565b6040516103d491906144dc565b60405180910390f35b3480156103e957600080fd5b5061040460048036038101906103ff91906139f7565b6111a2565b604051610411919061419a565b60405180910390f35b34801561042657600080fd5b50610441600480360381019061043c91906137d2565b611247565b60405161044e91906144f7565b60405180910390f35b34801561046357600080fd5b5061047e600480360381019061047991906136cc565b61126c565b005b34801561048c57600080fd5b506104a760048036038101906104a291906139f7565b61128c565b6040516104b5929190614512565b60405180910390f35b3480156104ca57600080fd5b506104e560048036038101906104e091906139f7565b6112d4565b6040516104f291906140db565b60405180910390f35b34801561050757600080fd5b50610522600480360381019061051d9190613667565b611386565b60405161052f91906144f7565b60405180910390f35b34801561054457600080fd5b5061054d61143e565b60405161055a919061417f565b60405180910390f35b34801561056f57600080fd5b5061058a60048036038101906105859190613adb565b6114ee565b005b34801561059857600080fd5b506105a1611591565b6040516105ae919061419a565b60405180910390f35b3480156105c357600080fd5b506105cc611623565b6040516105d991906144f7565b60405180910390f35b3480156105ee57600080fd5b50610609600480360381019061060491906139f7565b611629565b604051610616919061419a565b60405180910390f35b34801561062b57600080fd5b5061064660048036038101906106419190613b17565b61175f565b60405161065391906140db565b60405180910390f35b34801561066857600080fd5b50610683600480360381019061067e9190613796565b6117ad565b005b34801561069157600080fd5b506106ac60048036038101906106a791906139f7565b6117c3565b6040516106b991906144f7565b60405180910390f35b3480156106ce57600080fd5b506106e960048036038101906106e491906139f7565b6117d6565b6040516106f691906144f7565b60405180910390f35b34801561070b57600080fd5b506107266004803603810190610721919061371b565b6118fe565b005b34801561073457600080fd5b5061074f600480360381019061074a9190613a5c565b611960565b005b34801561075d57600080fd5b5061077860048036038101906107739190613b17565b611d13565b005b34801561078657600080fd5b506107a1600480360381019061079c9190613938565b611db2565b6040516107ae91906144f7565b60405180910390f35b3480156107c357600080fd5b506107de60048036038101906107d991906139f7565b611e39565b6040516107eb919061419a565b60405180910390f35b34801561080057600080fd5b5061081b600480360381019061081691906138a1565b611ee0565b60405161082891906144f7565b60405180910390f35b34801561083d57600080fd5b5061085860048036038101906108539190613860565b611f24565b60405161086591906144f7565b60405180910390f35b34801561087a57600080fd5b5061089560048036038101906108909190613690565b6120e9565b6040516108a29190614164565b60405180910390f35b3480156108b757600080fd5b506108c061217d565b6040516108cd9190614142565b60405180910390f35b60007f80ac58cd000000000000000000000000000000000000000000000000000000007bffffffffffffffffffffffffffffffffffffffffffffffffffffffff1916827bffffffffffffffffffffffffffffffffffffffffffffffffffffffff191614806109a157507f5b5e139f000000000000000000000000000000000000000000000000000000007bffffffffffffffffffffffffffffffffffffffffffffffffffffffff1916827bffffffffffffffffffffffffffffffffffffffffffffffffffffffff1916145b806109b157506109b082612212565b5b9050919050565b6060600080546109c7906148b0565b80601f01602080910402602001604051908101604052809291908181526020018280546109f3906148b0565b8015610a405780601f10610a1557610100808354040283529160200191610a40565b820191906000526020600020905b815481529060010190602001808311610a2357829003601f168201915b5050505050905090565b6000610a558261227c565b610a94576040517f08c379a0000000000000000000000000000000000000000000000000000000008152600401610a8b9061437c565b60405180910390fd5b6004600083815260200190815260200160002060009054906101000a900473ffffffffffffffffffffffffffffffffffffffff169050919050565b6000610ada826112d4565b90508073ffffffffffffffffffffffffffffffffffffffff168373ffffffffffffffffffffffffffffffffffffffff161415610b4b576040517f08c379a0000000000000000000000000000000000000000000000000000000008152600401610b42906143dc565b60405180910390fd5b8073ffffffffffffffffffffffffffffffffffffffff16610b6a6122e8565b73ffffffffffffffffffffffffffffffffffffffff161480610b995750610b9881610b936122e8565b6120e9565b5b610bd8576040517f08c379a0000000000000000000000000000000000000000000000000000000008152600401610bcf906142fc565b60405180910390fd5b610be283836122f0565b505050565b6000610bf28261227c565b610c31576040517f08c379a0000000000000000000000000000000000000000000000000000000008152600401610c28906144bc565b60405180910390fd5b610c3b83836123a9565b905092915050565b600f60009054906101000a900473ffffffffffffffffffffffffffffffffffffffff1673ffffffffffffffffffffffffffffffffffffffff163373ffffffffffffffffffffffffffffffffffffffff1614610cd3576040517f08c379a0000000000000000000000000000000000000000000000000000000008152600401610cca906143fc565b60405180910390fd5b80600e60006101000a81548173ffffffffffffffffffffffffffffffffffffffff021916908373ffffffffffffffffffffffffffffffffffffffff16021790555050565b610d208161227c565b610d5f576040517f08c379a0000000000000000000000000000000000000000000000000000000008152600401610d56906141fc565b60405180910390fd5b610d688161241c565b60005b60076000838152602001908152602001600020805490508160ff161015610ede576000600760008481526020019081526020016000208260ff1681548110610ddc577f4e487b7100000000000000000000000000000000000000000000000000000000600052603260045260246000fd5b9060005260206000200160009054906101000a900473ffffffffffffffffffffffffffffffffffffffff169050610e76610e17843484612491565b600b600086815260200190815260200160002060008473ffffffffffffffffffffffffffffffffffffffff1673ffffffffffffffffffffffffffffffffffffffff1681526020019081526020016000205461255b90919063ffffffff16565b600b600085815260200190815260200160002060008373ffffffffffffffffffffffffffffffffffffffff1673ffffffffffffffffffffffffffffffffffffffff16815260200190815260200160002081905550508080610ed69061495c565b915050610d6b565b50610f0560096000838152602001908152602001600020544261255b90919063ffffffff16565b600660008473ffffffffffffffffffffffffffffffffffffffff1673ffffffffffffffffffffffffffffffffffffffff1681526020019081526020016000206000838152602001908152602001600020819055505050565b610f668161227c565b610fa5576040517f08c379a0000000000000000000000000000000000000000000000000000000008152600401610f9c906141fc565b60405180910390fd5b6000600b600083815260200190815260200160002060003373ffffffffffffffffffffffffffffffffffffffff1673ffffffffffffffffffffffffffffffffffffffff168152602001908152602001600020549050600081141561103e576040517f08c379a0000000000000000000000000000000000000000000000000000000008152600401611035906141dc565b60405180910390fd5b6000600b600084815260200190815260200160002060003373ffffffffffffffffffffffffffffffffffffffff1673ffffffffffffffffffffffffffffffffffffffff1681526020019081526020016000208190555060003373ffffffffffffffffffffffffffffffffffffffff166108fc839081150290604051600060405180830381858888f1935050505090508061110d576040517f08c379a00000000000000000000000000000000000000000000000000000000081526004016111049061447c565b60405180910390fd5b505050565b61112361111d6122e8565b82612571565b611162576040517f08c379a00000000000000000000000000000000000000000000000000000000081526004016111599061441c565b60405180910390fd5b61116d83838361264f565b505050565b60086020528160005260406000206020528060005260406000206000915091509054906101000a900461ffff1681565b6060600c600083815260200190815260200160002080546111c2906148b0565b80601f01602080910402602001604051908101604052809291908181526020018280546111ee906148b0565b801561123b5780601f106112105761010080835404028352916020019161123b565b820191906000526020600020905b81548152906001019060200180831161121e57829003601f168201915b50505050509050919050565b6006602052816000526040600020602052806000526040600020600091509150505481565b611287838383604051806020016040528060008152506118fe565b505050565b6000806009600084815260200190815260200160002054600a600085815260200190815260200160002060009054906101000a900467ffffffffffffffff1691509150915091565b6000806002600084815260200190815260200160002060009054906101000a900473ffffffffffffffffffffffffffffffffffffffff169050600073ffffffffffffffffffffffffffffffffffffffff168173ffffffffffffffffffffffffffffffffffffffff16141561137d576040517f08c379a00000000000000000000000000000000000000000000000000000000081526004016113749061433c565b60405180910390fd5b80915050919050565b60008073ffffffffffffffffffffffffffffffffffffffff168273ffffffffffffffffffffffffffffffffffffffff1614156113f7576040517f08c379a00000000000000000000000000000000000000000000000000000000081526004016113ee9061431c565b60405180910390fd5b600360008373ffffffffffffffffffffffffffffffffffffffff1673ffffffffffffffffffffffffffffffffffffffff168152602001908152602001600020549050919050565b600080600e60009054906101000a900473ffffffffffffffffffffffffffffffffffffffff1673ffffffffffffffffffffffffffffffffffffffff1663feaf968c6040518163ffffffff1660e01b815260040160a06040518083038186803b1580156114a957600080fd5b505afa1580156114bd573d6000803e3d6000fd5b505050506040513d601f19601f820116820180604052508101906114e19190613b53565b5050509150508091505090565b6114f78261227c565b611536576040517f08c379a000000000000000000000000000000000000000000000000000000000815260040161152d906141fc565b60405180910390fd5b6115403383612571565b61157f576040517f08c379a0000000000000000000000000000000000000000000000000000000008152600401611576906141bc565b60405180910390fd5b61158d828261ffff166128b6565b5050565b6060600180546115a0906148b0565b80601f01602080910402602001604051908101604052809291908181526020018280546115cc906148b0565b80156116195780601f106115ee57610100808354040283529160200191611619565b820191906000526020600020905b8154815290600101906020018083116115fc57829003601f168201915b5050505050905090565b60105481565b60606116348261227c565b611673576040517f08c379a000000000000000000000000000000000000000000000000000000000815260040161166a906141fc565b60405180910390fd5b61167d33836123a9565b6116bc576040517f08c379a00000000000000000000000000000000000000000000000000000000081526004016116b39061439c565b60405180910390fd5b600c600083815260200190815260200160002080546116da906148b0565b80601f0160208091040260200160405190810160405280929190818152602001828054611706906148b0565b80156117535780601f1061172857610100808354040283529160200191611753565b820191906000526020600020905b81548152906001019060200180831161173657829003601f168201915b50505050509050919050565b6007602052816000526040600020818154811061177b57600080fd5b906000526020600020016000915091509054906101000a900473ffffffffffffffffffffffffffffffffffffffff1681565b6117bf6117b86122e8565b8383612942565b5050565b60006117cf8233612aaf565b9050919050565b60006117e18261227c565b611820576040517f08c379a0000000000000000000000000000000000000000000000000000000008152600401611817906141fc565b60405180910390fd5b6000805b60076000858152602001908152602001600020805490508160ff1610156118f4576000600760008681526020019081526020016000208260ff1681548110611895577f4e487b7100000000000000000000000000000000000000000000000000000000600052603260045260246000fd5b9060005260206000200160009054906101000a900473ffffffffffffffffffffffffffffffffffffffff1690506118de6118cf8683612aaf565b8461255b90919063ffffffff16565b92505080806118ec9061495c565b915050611824565b5080915050919050565b61190f6119096122e8565b83612571565b61194e576040517f08c379a00000000000000000000000000000000000000000000000000000000081526004016119459061441c565b60405180910390fd5b61195a84848484612b0a565b50505050565b6119698361227c565b6119a8576040517f08c379a000000000000000000000000000000000000000000000000000000000815260040161199f906144bc565b60405180910390fd5b6119b23384612571565b6119f1576040517f08c379a00000000000000000000000000000000000000000000000000000000081526004016119e8906141bc565b60405180910390fd5b8051825114611a35576040517f08c379a0000000000000000000000000000000000000000000000000000000008152600401611a2c9061445c565b60405180910390fd5b6000805b8251811015611ca0576000848281518110611a7d577f4e487b7100000000000000000000000000000000000000000000000000000000600052603260045260246000fd5b60200260200101519050600073ffffffffffffffffffffffffffffffffffffffff168173ffffffffffffffffffffffffffffffffffffffff161415611ac157600080fd5b6103e8848381518110611afd577f4e487b7100000000000000000000000000000000000000000000000000000000600052603260045260246000fd5b602002602001015161ffff1611611b1357600080fd5b838281518110611b4c577f4e487b7100000000000000000000000000000000000000000000000000000000600052603260045260246000fd5b60200260200101516008600088815260200190815260200160002060008373ffffffffffffffffffffffffffffffffffffffff1673ffffffffffffffffffffffffffffffffffffffff16815260200190815260200160002060006101000a81548161ffff021916908361ffff160217905550611bc88682612b66565b611c3357600d60008273ffffffffffffffffffffffffffffffffffffffff1673ffffffffffffffffffffffffffffffffffffffff1681526020019081526020016000208690806001815401808255809150506001900390600052602060002001600090919091909150555b611c8a848381518110611c6f577f4e487b7100000000000000000000000000000000000000000000000000000000600052603260045260246000fd5b602002602001015161ffff168461255b90919063ffffffff16565b9250508080611c9890614913565b915050611a39565b5082600760008681526020019081526020016000209080519060200190611cc892919061326c565b506127108114611d0d576040517f08c379a0000000000000000000000000000000000000000000000000000000008152600401611d049061449c565b60405180910390fd5b50505050565b611d1c8261227c565b611d5b576040517f08c379a0000000000000000000000000000000000000000000000000000000008152600401611d52906141fc565b60405180910390fd5b611d653383612571565b611da4576040517f08c379a0000000000000000000000000000000000000000000000000000000008152600401611d9b906141bc565b60405180910390fd5b611dae8282612c78565b5050565b6000611dca600160105461255b90919063ffffffff16565b601081905550611ddc33601054612c94565b611de860105486612c78565b611df4601054856128b6565b85600c600060105481526020019081526020016000209080519060200190611e1d9291906132f6565b50611e2b6010548484611960565b601054905095945050505050565b6060611e448261227c565b611e83576040517f08c379a0000000000000000000000000000000000000000000000000000000008152600401611e7a906143bc565b60405180910390fd5b6000611e8d612e6e565b90506000815111611ead5760405180602001604052806000815250611ed8565b80611eb784612e85565b604051602001611ec89291906140b7565b6040516020818303038152906040525b915050919050565b6000611f1b84601160009054906101000a900463ffffffff1663ffffffff16601160049054906101000a900461ffff1661ffff168686611db2565b90509392505050565b600080600167ffffffffffffffff811115611f68577f4e487b7100000000000000000000000000000000000000000000000000000000600052604160045260246000fd5b604051908082528060200260200182016040528015611f965781602001602082028036833780820191505090505b5090503381600081518110611fd4577f4e487b7100000000000000000000000000000000000000000000000000000000600052603260045260246000fd5b602002602001019073ffffffffffffffffffffffffffffffffffffffff16908173ffffffffffffffffffffffffffffffffffffffff16815250506000600167ffffffffffffffff811115612051577f4e487b7100000000000000000000000000000000000000000000000000000000600052604160045260246000fd5b60405190808252806020026020018201604052801561207f5781602001602082028036833780820191505090505b509050612710816000815181106120bf577f4e487b7100000000000000000000000000000000000000000000000000000000600052603260045260246000fd5b602002602001019061ffff16908161ffff16815250506120e0848383611ee0565b92505050919050565b6000600560008473ffffffffffffffffffffffffffffffffffffffff1673ffffffffffffffffffffffffffffffffffffffff16815260200190815260200160002060008373ffffffffffffffffffffffffffffffffffffffff1673ffffffffffffffffffffffffffffffffffffffff16815260200190815260200160002060009054906101000a900460ff16905092915050565b6060600d60003373ffffffffffffffffffffffffffffffffffffffff1673ffffffffffffffffffffffffffffffffffffffff16815260200190815260200160002080548060200260200160405190810160405280929190818152602001828054801561220857602002820191906000526020600020905b8154815260200190600101908083116121f4575b5050505050905090565b60007f01ffc9a7000000000000000000000000000000000000000000000000000000007bffffffffffffffffffffffffffffffffffffffffffffffffffffffff1916827bffffffffffffffffffffffffffffffffffffffffffffffffffffffff1916149050919050565b60008073ffffffffffffffffffffffffffffffffffffffff166002600084815260200190815260200160002060009054906101000a900473ffffffffffffffffffffffffffffffffffffffff1673ffffffffffffffffffffffffffffffffffffffff1614159050919050565b600033905090565b816004600083815260200190815260200160002060006101000a81548173ffffffffffffffffffffffffffffffffffffffff021916908373ffffffffffffffffffffffffffffffffffffffff160217905550808273ffffffffffffffffffffffffffffffffffffffff16612363836112d4565b73ffffffffffffffffffffffffffffffffffffffff167f8c5be1e5ebec7d5bd14f71427d1e84f3dd0314c0f7b2291e5b200ac8c7c3b92560405160405180910390a45050565b600080600660008573ffffffffffffffffffffffffffffffffffffffff1673ffffffffffffffffffffffffffffffffffffffff16815260200190815260200160002060008481526020019081526020016000205490506124098484612571565b8061241357504281115b91505092915050565b61244c600a600083815260200190815260200160002060009054906101000a900467ffffffffffffffff16613032565b34101561248e576040517f08c379a00000000000000000000000000000000000000000000000000000000081526004016124859061427c565b60405180910390fd5b50565b600080600a905060006125266127106125188460ff16600860008b815260200190815260200160002060008973ffffffffffffffffffffffffffffffffffffffff1673ffffffffffffffffffffffffffffffffffffffff16815260200190815260200160002060009054906101000a900461ffff1661ffff1661307c90919063ffffffff16565b61309290919063ffffffff16565b9050612550816125428460ff168861309290919063ffffffff16565b61307c90919063ffffffff16565b925050509392505050565b600081836125699190614696565b905092915050565b600061257c8261227c565b6125bb576040517f08c379a00000000000000000000000000000000000000000000000000000000081526004016125b2906142dc565b60405180910390fd5b60006125c6836112d4565b90508073ffffffffffffffffffffffffffffffffffffffff168473ffffffffffffffffffffffffffffffffffffffff161480612608575061260781856120e9565b5b8061264657508373ffffffffffffffffffffffffffffffffffffffff1661262e84610a4a565b73ffffffffffffffffffffffffffffffffffffffff16145b91505092915050565b8273ffffffffffffffffffffffffffffffffffffffff1661266f826112d4565b73ffffffffffffffffffffffffffffffffffffffff16146126c5576040517f08c379a00000000000000000000000000000000000000000000000000000000081526004016126bc9061423c565b60405180910390fd5b600073ffffffffffffffffffffffffffffffffffffffff168273ffffffffffffffffffffffffffffffffffffffff161415612735576040517f08c379a000000000000000000000000000000000000000000000000000000000815260040161272c9061429c565b60405180910390fd5b6127408383836130a8565b61274b6000826122f0565b6001600360008573ffffffffffffffffffffffffffffffffffffffff1673ffffffffffffffffffffffffffffffffffffffff168152602001908152602001600020600082825461279b9190614777565b925050819055506001600360008473ffffffffffffffffffffffffffffffffffffffff1673ffffffffffffffffffffffffffffffffffffffff16815260200190815260200160002060008282546127f29190614696565b92505081905550816002600083815260200190815260200160002060006101000a81548173ffffffffffffffffffffffffffffffffffffffff021916908373ffffffffffffffffffffffffffffffffffffffff160217905550808273ffffffffffffffffffffffffffffffffffffffff168473ffffffffffffffffffffffffffffffffffffffff167fddf252ad1be2c89b69c2b068fc378daa952ba7f163c4a11628f55a4df523b3ef60405160405180910390a46128b18383836130ad565b505050565b60648167ffffffffffffffff161015612904576040517f08c379a00000000000000000000000000000000000000000000000000000000081526004016128fb9061443c565b60405180910390fd5b80600a600084815260200190815260200160002060006101000a81548167ffffffffffffffff021916908367ffffffffffffffff1602179055505050565b8173ffffffffffffffffffffffffffffffffffffffff168373ffffffffffffffffffffffffffffffffffffffff1614156129b1576040517f08c379a00000000000000000000000000000000000000000000000000000000081526004016129a8906142bc565b60405180910390fd5b80600560008573ffffffffffffffffffffffffffffffffffffffff1673ffffffffffffffffffffffffffffffffffffffff16815260200190815260200160002060008473ffffffffffffffffffffffffffffffffffffffff1673ffffffffffffffffffffffffffffffffffffffff16815260200190815260200160002060006101000a81548160ff0219169083151502179055508173ffffffffffffffffffffffffffffffffffffffff168373ffffffffffffffffffffffffffffffffffffffff167f17307eab39ab6107e8899845ad3d59bd9653f200f220920489ca2b5937696c3183604051612aa29190614164565b60405180910390a3505050565b6000600b600084815260200190815260200160002060008373ffffffffffffffffffffffffffffffffffffffff1673ffffffffffffffffffffffffffffffffffffffff16815260200190815260200160002054905092915050565b612b1584848461264f565b612b21848484846130b2565b612b60576040517f08c379a0000000000000000000000000000000000000000000000000000000008152600401612b579061421c565b60405180910390fd5b50505050565b600080600d60008473ffffffffffffffffffffffffffffffffffffffff1673ffffffffffffffffffffffffffffffffffffffff168152602001908152602001600020805480602002602001604051908101604052809291908181526020018280548015612bf257602002820191906000526020600020905b815481526020019060010190808311612bde575b5050505050905060005b8151811015612c6b57818181518110612c3e577f4e487b7100000000000000000000000000000000000000000000000000000000600052603260045260246000fd5b6020026020010151851415612c5857600192505050612c72565b8080612c6390614913565b915050612bfc565b5060009150505b92915050565b8060096000848152602001908152602001600020819055505050565b600073ffffffffffffffffffffffffffffffffffffffff168273ffffffffffffffffffffffffffffffffffffffff161415612d04576040517f08c379a0000000000000000000000000000000000000000000000000000000008152600401612cfb9061435c565b60405180910390fd5b612d0d8161227c565b15612d4d576040517f08c379a0000000000000000000000000000000000000000000000000000000008152600401612d449061425c565b60405180910390fd5b612d59600083836130a8565b6001600360008473ffffffffffffffffffffffffffffffffffffffff1673ffffffffffffffffffffffffffffffffffffffff1681526020019081526020016000206000828254612da99190614696565b92505081905550816002600083815260200190815260200160002060006101000a81548173ffffffffffffffffffffffffffffffffffffffff021916908373ffffffffffffffffffffffffffffffffffffffff160217905550808273ffffffffffffffffffffffffffffffffffffffff16600073ffffffffffffffffffffffffffffffffffffffff167fddf252ad1be2c89b69c2b068fc378daa952ba7f163c4a11628f55a4df523b3ef60405160405180910390a4612e6a600083836130ad565b5050565b606060405180602001604052806000815250905090565b60606000821415612ecd576040518060400160405280600181526020017f3000000000000000000000000000000000000000000000000000000000000000815250905061302d565b600082905060005b60008214612eff578080612ee890614913565b915050600a82612ef891906146ec565b9150612ed5565b60008167ffffffffffffffff811115612f41577f4e487b7100000000000000000000000000000000000000000000000000000000600052604160045260246000fd5b6040519080825280601f01601f191660200182016040528015612f735781602001600182028036833780820191505090505b5090505b6000851461302657600182612f8c9190614777565b9150600a85612f9b9190614986565b6030612fa79190614696565b60f81b818381518110612fe3577f4e487b7100000000000000000000000000000000000000000000000000000000600052603260045260246000fd5b60200101907effffffffffffffffffffffffffffffffffffffffffffffffffffffffffffff1916908160001a905350600a8561301f91906146ec565b9450612f77565b8093505050505b919050565b60008061303d61143e565b9050600066038d7ea4c680008467ffffffffffffffff1661305e919061471d565b9050613073828261309290919063ffffffff16565b92505050919050565b6000818361308a919061471d565b905092915050565b600081836130a091906146ec565b905092915050565b505050565b505050565b60006130d38473ffffffffffffffffffffffffffffffffffffffff16613249565b1561323c578373ffffffffffffffffffffffffffffffffffffffff1663150b7a026130fc6122e8565b8786866040518563ffffffff1660e01b815260040161311e94939291906140f6565b602060405180830381600087803b15801561313857600080fd5b505af192505050801561316957506040513d601f19601f820116820180604052508101906131669190613837565b60015b6131ec573d8060008114613199576040519150601f19603f3d011682016040523d82523d6000602084013e61319e565b606091505b506000815114156131e4576040517f08c379a00000000000000000000000000000000000000000000000000000000081526004016131db9061421c565b60405180910390fd5b805181602001fd5b63150b7a0260e01b7bffffffffffffffffffffffffffffffffffffffffffffffffffffffff1916817bffffffffffffffffffffffffffffffffffffffffffffffffffffffff191614915050613241565b600190505b949350505050565b6000808273ffffffffffffffffffffffffffffffffffffffff163b119050919050565b8280548282559060005260206000209081019282156132e5579160200282015b828111156132e45782518260006101000a81548173ffffffffffffffffffffffffffffffffffffffff021916908373ffffffffffffffffffffffffffffffffffffffff1602179055509160200191906001019061328c565b5b5090506132f2919061337c565b5090565b828054613302906148b0565b90600052602060002090601f016020900481019282613324576000855561336b565b82601f1061333d57805160ff191683800117855561336b565b8280016001018555821561336b579182015b8281111561336a57825182559160200191906001019061334f565b5b509050613378919061337c565b5090565b5b8082111561339557600081600090555060010161337d565b5090565b60006133ac6133a784614560565b61453b565b905080838252602082019050828560208602820111156133cb57600080fd5b60005b858110156133fb57816133e188826134ed565b8452602084019350602083019250506001810190506133ce565b5050509392505050565b60006134186134138461458c565b61453b565b9050808382526020820190508285602086028201111561343757600080fd5b60005b85811015613467578161344d88826135fe565b84526020840193506020830192505060018101905061343a565b5050509392505050565b600061348461347f846145b8565b61453b565b90508281526020810184848401111561349c57600080fd5b6134a784828561486e565b509392505050565b60006134c26134bd846145e9565b61453b565b9050828152602081018484840111156134da57600080fd5b6134e584828561486e565b509392505050565b6000813590506134fc81615099565b92915050565b600082601f83011261351357600080fd5b8135613523848260208601613399565b91505092915050565b600082601f83011261353d57600080fd5b813561354d848260208601613405565b91505092915050565b600081359050613565816150b0565b92915050565b60008135905061357a816150c7565b92915050565b60008151905061358f816150c7565b92915050565b600082601f8301126135a657600080fd5b81356135b6848260208601613471565b91505092915050565b6000815190506135ce816150de565b92915050565b600082601f8301126135e557600080fd5b81356135f58482602086016134af565b91505092915050565b60008135905061360d816150f5565b92915050565b6000813590506136228161510c565b92915050565b6000815190506136378161510c565b92915050565b60008135905061364c81615123565b92915050565b6000815190506136618161513a565b92915050565b60006020828403121561367957600080fd5b6000613687848285016134ed565b91505092915050565b600080604083850312156136a357600080fd5b60006136b1858286016134ed565b92505060206136c2858286016134ed565b9150509250929050565b6000806000606084860312156136e157600080fd5b60006136ef868287016134ed565b9350506020613700868287016134ed565b925050604061371186828701613613565b9150509250925092565b6000806000806080858703121561373157600080fd5b600061373f878288016134ed565b9450506020613750878288016134ed565b935050604061376187828801613613565b925050606085013567ffffffffffffffff81111561377e57600080fd5b61378a87828801613595565b91505092959194509250565b600080604083850312156137a957600080fd5b60006137b7858286016134ed565b92505060206137c885828601613556565b9150509250929050565b600080604083850312156137e557600080fd5b60006137f3858286016134ed565b925050602061380485828601613613565b9150509250929050565b60006020828403121561382057600080fd5b600061382e8482850161356b565b91505092915050565b60006020828403121561384957600080fd5b600061385784828501613580565b91505092915050565b60006020828403121561387257600080fd5b600082013567ffffffffffffffff81111561388c57600080fd5b613898848285016135d4565b91505092915050565b6000806000606084860312156138b657600080fd5b600084013567ffffffffffffffff8111156138d057600080fd5b6138dc868287016135d4565b935050602084013567ffffffffffffffff8111156138f957600080fd5b61390586828701613502565b925050604084013567ffffffffffffffff81111561392257600080fd5b61392e8682870161352c565b9150509250925092565b600080600080600060a0868803121561395057600080fd5b600086013567ffffffffffffffff81111561396a57600080fd5b613976888289016135d4565b955050602061398788828901613613565b94505060406139988882890161363d565b935050606086013567ffffffffffffffff8111156139b557600080fd5b6139c188828901613502565b925050608086013567ffffffffffffffff8111156139de57600080fd5b6139ea8882890161352c565b9150509295509295909350565b600060208284031215613a0957600080fd5b6000613a1784828501613613565b91505092915050565b60008060408385031215613a3357600080fd5b6000613a4185828601613613565b9250506020613a52858286016134ed565b9150509250929050565b600080600060608486031215613a7157600080fd5b6000613a7f86828701613613565b935050602084013567ffffffffffffffff811115613a9c57600080fd5b613aa886828701613502565b925050604084013567ffffffffffffffff811115613ac557600080fd5b613ad18682870161352c565b9150509250925092565b60008060408385031215613aee57600080fd5b6000613afc85828601613613565b9250506020613b0d858286016135fe565b9150509250929050565b60008060408385031215613b2a57600080fd5b6000613b3885828601613613565b9250506020613b4985828601613613565b9150509250929050565b600080600080600060a08688031215613b6b57600080fd5b6000613b7988828901613652565b9550506020613b8a888289016135bf565b9450506040613b9b88828901613628565b9350506060613bac88828901613628565b9250506080613bbd88828901613652565b9150509295509295909350565b6000613bd6838361408a565b60208301905092915050565b613beb816147ab565b82525050565b6000613bfc8261462a565b613c068185614658565b9350613c118361461a565b8060005b83811015613c42578151613c298882613bca565b9750613c348361464b565b925050600181019050613c15565b5085935050505092915050565b613c58816147bd565b82525050565b6000613c6982614635565b613c738185614669565b9350613c8381856020860161487d565b613c8c81614a73565b840191505092915050565b613ca0816147f5565b82525050565b6000613cb182614640565b613cbb818561467a565b9350613ccb81856020860161487d565b613cd481614a73565b840191505092915050565b6000613cea82614640565b613cf4818561468b565b9350613d0481856020860161487d565b80840191505092915050565b6000613d1d60158361467a565b9150613d2882614a84565b602082019050919050565b6000613d40600d8361467a565b9150613d4b82614aad565b602082019050919050565b6000613d6360128361467a565b9150613d6e82614ad6565b602082019050919050565b6000613d8660328361467a565b9150613d9182614aff565b604082019050919050565b6000613da960258361467a565b9150613db482614b4e565b604082019050919050565b6000613dcc601c8361467a565b9150613dd782614b9d565b602082019050919050565b6000613def60128361467a565b9150613dfa82614bc6565b602082019050919050565b6000613e1260248361467a565b9150613e1d82614bef565b604082019050919050565b6000613e3560198361467a565b9150613e4082614c3e565b602082019050919050565b6000613e58602c8361467a565b9150613e6382614c67565b604082019050919050565b6000613e7b60388361467a565b9150613e8682614cb6565b604082019050919050565b6000613e9e602a8361467a565b9150613ea982614d05565b604082019050919050565b6000613ec160298361467a565b9150613ecc82614d54565b604082019050919050565b6000613ee460208361467a565b9150613eef82614da3565b602082019050919050565b6000613f07602c8361467a565b9150613f1282614dcc565b604082019050919050565b6000613f2a600c8361467a565b9150613f3582614e1b565b602082019050919050565b6000613f4d602f8361467a565b9150613f5882614e44565b604082019050919050565b6000613f7060218361467a565b9150613f7b82614e93565b604082019050919050565b6000613f9360168361467a565b9150613f9e82614ee2565b602082019050919050565b6000613fb660318361467a565b9150613fc182614f0b565b604082019050919050565b6000613fd9602b8361467a565b9150613fe482614f5a565b604082019050919050565b6000613ffc602e8361467a565b915061400782614fa9565b604082019050919050565b600061401f60108361467a565b915061402a82614ff8565b602082019050919050565b600061404260218361467a565b915061404d82615021565b604082019050919050565b600061406560148361467a565b915061407082615070565b602082019050919050565b614084816147ff565b82525050565b6140938161482d565b82525050565b6140a28161482d565b82525050565b6140b181614837565b82525050565b60006140c38285613cdf565b91506140cf8284613cdf565b91508190509392505050565b60006020820190506140f06000830184613be2565b92915050565b600060808201905061410b6000830187613be2565b6141186020830186613be2565b6141256040830185614099565b81810360608301526141378184613c5e565b905095945050505050565b6000602082019050818103600083015261415c8184613bf1565b905092915050565b60006020820190506141796000830184613c4f565b92915050565b60006020820190506141946000830184613c97565b92915050565b600060208201905081810360008301526141b48184613ca6565b905092915050565b600060208201905081810360008301526141d581613d10565b9050919050565b600060208201905081810360008301526141f581613d33565b9050919050565b6000602082019050818103600083015261421581613d56565b9050919050565b6000602082019050818103600083015261423581613d79565b9050919050565b6000602082019050818103600083015261425581613d9c565b9050919050565b6000602082019050818103600083015261427581613dbf565b9050919050565b6000602082019050818103600083015261429581613de2565b9050919050565b600060208201905081810360008301526142b581613e05565b9050919050565b600060208201905081810360008301526142d581613e28565b9050919050565b600060208201905081810360008301526142f581613e4b565b9050919050565b6000602082019050818103600083015261431581613e6e565b9050919050565b6000602082019050818103600083015261433581613e91565b9050919050565b6000602082019050818103600083015261435581613eb4565b9050919050565b6000602082019050818103600083015261437581613ed7565b9050919050565b6000602082019050818103600083015261439581613efa565b9050919050565b600060208201905081810360008301526143b581613f1d565b9050919050565b600060208201905081810360008301526143d581613f40565b9050919050565b600060208201905081810360008301526143f581613f63565b9050919050565b6000602082019050818103600083015261441581613f86565b9050919050565b6000602082019050818103600083015261443581613fa9565b9050919050565b6000602082019050818103600083015261445581613fcc565b9050919050565b6000602082019050818103600083015261447581613fef565b9050919050565b6000602082019050818103600083015261449581614012565b9050919050565b600060208201905081810360008301526144b581614035565b9050919050565b600060208201905081810360008301526144d581614058565b9050919050565b60006020820190506144f1600083018461407b565b92915050565b600060208201905061450c6000830184614099565b92915050565b60006040820190506145276000830185614099565b61453460208301846140a8565b9392505050565b6000614545614556565b905061455182826148e2565b919050565b6000604051905090565b600067ffffffffffffffff82111561457b5761457a614a44565b5b602082029050602081019050919050565b600067ffffffffffffffff8211156145a7576145a6614a44565b5b602082029050602081019050919050565b600067ffffffffffffffff8211156145d3576145d2614a44565b5b6145dc82614a73565b9050602081019050919050565b600067ffffffffffffffff82111561460457614603614a44565b5b61460d82614a73565b9050602081019050919050565b6000819050602082019050919050565b600081519050919050565b600081519050919050565b600081519050919050565b6000602082019050919050565b600082825260208201905092915050565b600082825260208201905092915050565b600082825260208201905092915050565b600081905092915050565b60006146a18261482d565b91506146ac8361482d565b9250827fffffffffffffffffffffffffffffffffffffffffffffffffffffffffffffffff038211156146e1576146e06149b7565b5b828201905092915050565b60006146f78261482d565b91506147028361482d565b925082614712576147116149e6565b5b828204905092915050565b60006147288261482d565b91506147338361482d565b9250817fffffffffffffffffffffffffffffffffffffffffffffffffffffffffffffffff048311821515161561476c5761476b6149b7565b5b828202905092915050565b60006147828261482d565b915061478d8361482d565b9250828210156147a05761479f6149b7565b5b828203905092915050565b60006147b68261480d565b9050919050565b60008115159050919050565b60007fffffffff0000000000000000000000000000000000000000000000000000000082169050919050565b6000819050919050565b600061ffff82169050919050565b600073ffffffffffffffffffffffffffffffffffffffff82169050919050565b6000819050919050565b600067ffffffffffffffff82169050919050565b600060ff82169050919050565b600069ffffffffffffffffffff82169050919050565b82818337600083830152505050565b60005b8381101561489b578082015181840152602081019050614880565b838111156148aa576000848401525b50505050565b600060028204905060018216806148c857607f821691505b602082108114156148dc576148db614a15565b5b50919050565b6148eb82614a73565b810181811067ffffffffffffffff8211171561490a57614909614a44565b5b80604052505050565b600061491e8261482d565b91507fffffffffffffffffffffffffffffffffffffffffffffffffffffffffffffffff821415614951576149506149b7565b5b600182019050919050565b60006149678261484b565b915060ff82141561497b5761497a6149b7565b5b600182019050919050565b60006149918261482d565b915061499c8361482d565b9250826149ac576149ab6149e6565b5b828206905092915050565b7f4e487b7100000000000000000000000000000000000000000000000000000000600052601160045260246000fd5b7f4e487b7100000000000000000000000000000000000000000000000000000000600052601260045260246000fd5b7f4e487b7100000000000000000000000000000000000000000000000000000000600052602260045260246000fd5b7f4e487b7100000000000000000000000000000000000000000000000000000000600052604160045260246000fd5b6000601f19601f8301169050919050565b7f6e6f7420617070726f766564206f72206f776e65720000000000000000000000600082015250565b7f6e6f2073656e642076616c756500000000000000000000000000000000000000600082015250565b7f5f696420646f6573206e6f742065786973740000000000000000000000000000600082015250565b7f4552433732313a207472616e7366657220746f206e6f6e20455243373231526560008201527f63656976657220696d706c656d656e7465720000000000000000000000000000602082015250565b7f4552433732313a207472616e736665722066726f6d20696e636f72726563742060008201527f6f776e6572000000000000000000000000000000000000000000000000000000602082015250565b7f4552433732313a20746f6b656e20616c7265616479206d696e74656400000000600082015250565b7f696e73756666696369656e742076616c75650000000000000000000000000000600082015250565b7f4552433732313a207472616e7366657220746f20746865207a65726f2061646460008201527f7265737300000000000000000000000000000000000000000000000000000000602082015250565b7f4552433732313a20617070726f766520746f2063616c6c657200000000000000600082015250565b7f4552433732313a206f70657261746f7220717565727920666f72206e6f6e657860008201527f697374656e7420746f6b656e0000000000000000000000000000000000000000602082015250565b7f4552433732313a20617070726f76652063616c6c6572206973206e6f74206f7760008201527f6e6572206e6f7220617070726f76656420666f7220616c6c0000000000000000602082015250565b7f4552433732313a2062616c616e636520717565727920666f7220746865207a6560008201527f726f206164647265737300000000000000000000000000000000000000000000602082015250565b7f4552433732313a206f776e657220717565727920666f72206e6f6e657869737460008201527f656e7420746f6b656e0000000000000000000000000000000000000000000000602082015250565b7f4552433732313a206d696e7420746f20746865207a65726f2061646472657373600082015250565b7f4552433732313a20617070726f76656420717565727920666f72206e6f6e657860008201527f697374656e7420746f6b656e0000000000000000000000000000000000000000602082015250565b7f63616e206e6f7420766965770000000000000000000000000000000000000000600082015250565b7f4552433732314d657461646174613a2055524920717565727920666f72206e6f60008201527f6e6578697374656e7420746f6b656e0000000000000000000000000000000000602082015250565b7f4552433732313a20617070726f76616c20746f2063757272656e74206f776e6560008201527f7200000000000000000000000000000000000000000000000000000000000000602082015250565b7f6f6e6c79206465706c6f7965722063616e20696e697400000000000000000000600082015250565b7f4552433732313a207472616e736665722063616c6c6572206973206e6f74206f60008201527f776e6572206e6f7220617070726f766564000000000000000000000000000000602082015250565b7f616d6f756e74206d7573742062652067726561746572207468616e203130302060008201527f5553442070656e6e696573000000000000000000000000000000000000000000602082015250565b7f726563697069656e747320616e6420616c6c6f636174696f6e7320617265206e60008201527f6f742073616d65206c656e677468000000000000000000000000000000000000602082015250565b7f6661696c656420746f2072656465656d00000000000000000000000000000000600082015250565b7f616c6c6f636174696f6e7320646f206e6f742061646420757020746f2031303060008201527f2500000000000000000000000000000000000000000000000000000000000000602082015250565b7f746f6b656e20646f6573206e6f74206578697374000000000000000000000000600082015250565b6150a2816147ab565b81146150ad57600080fd5b50565b6150b9816147bd565b81146150c457600080fd5b50565b6150d0816147c9565b81146150db57600080fd5b50565b6150e7816147f5565b81146150f257600080fd5b50565b6150fe816147ff565b811461510957600080fd5b50565b6151158161482d565b811461512057600080fd5b50565b61512c81614837565b811461513757600080fd5b50565b61514381614858565b811461514e57600080fd5b5056fea26469706673582212208b3a54d85b5c9e800f49bdc50651ce7146c2a9b58787ef4912b5506ec9a0b53164736f6c63430008040033",
  "linkReferences": {},
  "deployedLinkReferences": {}
}